{
  "_format": "hh-sol-artifact-1",
  "contractName": "AIART721",
  "sourceName": "src/contracts/NFT_V1.sol",
  "abi": [
    {
      "inputs": [],
      "stateMutability": "nonpayable",
      "type": "constructor"
    },
    {
      "inputs": [],
      "name": "ERC721EnumerableForbiddenBatchMint",
      "type": "error"
    },
    {
      "inputs": [
        {
          "internalType": "address",
          "name": "sender",
          "type": "address"
        },
        {
          "internalType": "uint256",
          "name": "tokenId",
          "type": "uint256"
        },
        {
          "internalType": "address",
          "name": "owner",
          "type": "address"
        }
      ],
      "name": "ERC721IncorrectOwner",
      "type": "error"
    },
    {
      "inputs": [
        {
          "internalType": "address",
          "name": "operator",
          "type": "address"
        },
        {
          "internalType": "uint256",
          "name": "tokenId",
          "type": "uint256"
        }
      ],
      "name": "ERC721InsufficientApproval",
      "type": "error"
    },
    {
      "inputs": [
        {
          "internalType": "address",
          "name": "approver",
          "type": "address"
        }
      ],
      "name": "ERC721InvalidApprover",
      "type": "error"
    },
    {
      "inputs": [
        {
          "internalType": "address",
          "name": "operator",
          "type": "address"
        }
      ],
      "name": "ERC721InvalidOperator",
      "type": "error"
    },
    {
      "inputs": [
        {
          "internalType": "address",
          "name": "owner",
          "type": "address"
        }
      ],
      "name": "ERC721InvalidOwner",
      "type": "error"
    },
    {
      "inputs": [
        {
          "internalType": "address",
          "name": "receiver",
          "type": "address"
        }
      ],
      "name": "ERC721InvalidReceiver",
      "type": "error"
    },
    {
      "inputs": [
        {
          "internalType": "address",
          "name": "sender",
          "type": "address"
        }
      ],
      "name": "ERC721InvalidSender",
      "type": "error"
    },
    {
      "inputs": [
        {
          "internalType": "uint256",
          "name": "tokenId",
          "type": "uint256"
        }
      ],
      "name": "ERC721NonexistentToken",
      "type": "error"
    },
    {
      "inputs": [
        {
          "internalType": "address",
          "name": "owner",
          "type": "address"
        },
        {
          "internalType": "uint256",
          "name": "index",
          "type": "uint256"
        }
      ],
      "name": "ERC721OutOfBoundsIndex",
      "type": "error"
    },
    {
      "inputs": [
        {
          "internalType": "address",
          "name": "owner",
          "type": "address"
        }
      ],
      "name": "OwnableInvalidOwner",
      "type": "error"
    },
    {
      "inputs": [
        {
          "internalType": "address",
          "name": "account",
          "type": "address"
        }
      ],
      "name": "OwnableUnauthorizedAccount",
      "type": "error"
    },
    {
      "anonymous": false,
      "inputs": [
        {
          "indexed": true,
          "internalType": "address",
          "name": "owner",
          "type": "address"
        },
        {
          "indexed": true,
          "internalType": "address",
          "name": "approved",
          "type": "address"
        },
        {
          "indexed": true,
          "internalType": "uint256",
          "name": "tokenId",
          "type": "uint256"
        }
      ],
      "name": "Approval",
      "type": "event"
    },
    {
      "anonymous": false,
      "inputs": [
        {
          "indexed": true,
          "internalType": "address",
          "name": "owner",
          "type": "address"
        },
        {
          "indexed": true,
          "internalType": "address",
          "name": "operator",
          "type": "address"
        },
        {
          "indexed": false,
          "internalType": "bool",
          "name": "approved",
          "type": "bool"
        }
      ],
      "name": "ApprovalForAll",
      "type": "event"
    },
    {
      "anonymous": false,
      "inputs": [
        {
          "indexed": true,
          "internalType": "address",
          "name": "previousOwner",
          "type": "address"
        },
        {
          "indexed": true,
          "internalType": "address",
          "name": "newOwner",
          "type": "address"
        }
      ],
      "name": "OwnershipTransferred",
      "type": "event"
    },
    {
      "anonymous": false,
      "inputs": [
        {
          "indexed": true,
          "internalType": "address",
          "name": "from",
          "type": "address"
        },
        {
          "indexed": true,
          "internalType": "address",
          "name": "to",
          "type": "address"
        },
        {
          "indexed": true,
          "internalType": "uint256",
          "name": "tokenId",
          "type": "uint256"
        }
      ],
      "name": "Transfer",
      "type": "event"
    },
    {
      "inputs": [
        {
          "internalType": "address",
          "name": "to",
          "type": "address"
        },
        {
          "internalType": "uint256",
          "name": "tokenId",
          "type": "uint256"
        }
      ],
      "name": "approve",
      "outputs": [],
      "stateMutability": "nonpayable",
      "type": "function"
    },
    {
      "inputs": [
        {
          "internalType": "uint256",
          "name": "",
          "type": "uint256"
        }
      ],
      "name": "artworkDetails",
      "outputs": [
        {
          "internalType": "address",
          "name": "creator",
          "type": "address"
        },
        {
          "internalType": "string",
          "name": "prompt",
          "type": "string"
        },
        {
          "internalType": "string",
          "name": "aiModelUsed",
          "type": "string"
        },
        {
          "internalType": "bytes32",
          "name": "aiModelSignature",
          "type": "bytes32"
        },
        {
          "internalType": "uint256",
          "name": "timestamp",
          "type": "uint256"
        }
      ],
      "stateMutability": "view",
      "type": "function"
    },
    {
      "inputs": [
        {
          "internalType": "address",
          "name": "owner",
          "type": "address"
        }
      ],
      "name": "balanceOf",
      "outputs": [
        {
          "internalType": "uint256",
          "name": "",
          "type": "uint256"
        }
      ],
      "stateMutability": "view",
      "type": "function"
    },
    {
      "inputs": [
        {
          "internalType": "uint256",
          "name": "tokenId",
          "type": "uint256"
        }
      ],
      "name": "getApproved",
      "outputs": [
        {
          "internalType": "address",
          "name": "",
          "type": "address"
        }
      ],
      "stateMutability": "view",
      "type": "function"
    },
    {
      "inputs": [
        {
          "internalType": "uint256",
          "name": "tokenId",
          "type": "uint256"
        }
      ],
      "name": "getArtworkDetails",
      "outputs": [
        {
          "components": [
            {
              "internalType": "address",
              "name": "creator",
              "type": "address"
            },
            {
              "internalType": "string",
              "name": "prompt",
              "type": "string"
            },
            {
              "internalType": "string",
              "name": "aiModelUsed",
              "type": "string"
            },
            {
              "internalType": "bytes32",
              "name": "aiModelSignature",
              "type": "bytes32"
            },
            {
              "internalType": "uint256",
              "name": "timestamp",
              "type": "uint256"
            }
          ],
          "internalType": "struct AIART721.AIArtwork",
          "name": "",
          "type": "tuple"
        }
      ],
      "stateMutability": "view",
      "type": "function"
    },
    {
      "inputs": [
        {
          "internalType": "address",
          "name": "owner",
          "type": "address"
        },
        {
          "internalType": "address",
          "name": "operator",
          "type": "address"
        }
      ],
      "name": "isApprovedForAll",
      "outputs": [
        {
          "internalType": "bool",
          "name": "",
          "type": "bool"
        }
      ],
      "stateMutability": "view",
      "type": "function"
    },
    {
      "inputs": [
        {
          "internalType": "address",
          "name": "to",
          "type": "address"
        },
        {
          "internalType": "string",
          "name": "prompt",
          "type": "string"
        },
        {
          "internalType": "string",
          "name": "aiModelUsed",
          "type": "string"
        },
        {
          "internalType": "bytes32",
          "name": "aiModelSignature",
          "type": "bytes32"
        }
      ],
      "name": "mint",
      "outputs": [
        {
          "internalType": "uint256",
          "name": "",
          "type": "uint256"
        }
      ],
      "stateMutability": "nonpayable",
      "type": "function"
    },
    {
      "inputs": [],
      "name": "name",
      "outputs": [
        {
          "internalType": "string",
          "name": "",
          "type": "string"
        }
      ],
      "stateMutability": "view",
      "type": "function"
    },
    {
      "inputs": [],
      "name": "owner",
      "outputs": [
        {
          "internalType": "address",
          "name": "",
          "type": "address"
        }
      ],
      "stateMutability": "view",
      "type": "function"
    },
    {
      "inputs": [
        {
          "internalType": "uint256",
          "name": "tokenId",
          "type": "uint256"
        }
      ],
      "name": "ownerOf",
      "outputs": [
        {
          "internalType": "address",
          "name": "",
          "type": "address"
        }
      ],
      "stateMutability": "view",
      "type": "function"
    },
    {
      "inputs": [],
      "name": "renounceOwnership",
      "outputs": [],
      "stateMutability": "nonpayable",
      "type": "function"
    },
    {
      "inputs": [
        {
          "internalType": "address",
          "name": "from",
          "type": "address"
        },
        {
          "internalType": "address",
          "name": "to",
          "type": "address"
        },
        {
          "internalType": "uint256",
          "name": "tokenId",
          "type": "uint256"
        }
      ],
      "name": "safeTransferFrom",
      "outputs": [],
      "stateMutability": "nonpayable",
      "type": "function"
    },
    {
      "inputs": [
        {
          "internalType": "address",
          "name": "from",
          "type": "address"
        },
        {
          "internalType": "address",
          "name": "to",
          "type": "address"
        },
        {
          "internalType": "uint256",
          "name": "tokenId",
          "type": "uint256"
        },
        {
          "internalType": "bytes",
          "name": "data",
          "type": "bytes"
        }
      ],
      "name": "safeTransferFrom",
      "outputs": [],
      "stateMutability": "nonpayable",
      "type": "function"
    },
    {
      "inputs": [
        {
          "internalType": "address",
          "name": "operator",
          "type": "address"
        },
        {
          "internalType": "bool",
          "name": "approved",
          "type": "bool"
        }
      ],
      "name": "setApprovalForAll",
      "outputs": [],
      "stateMutability": "nonpayable",
      "type": "function"
    },
    {
      "inputs": [
        {
          "internalType": "bytes4",
          "name": "interfaceId",
          "type": "bytes4"
        }
      ],
      "name": "supportsInterface",
      "outputs": [
        {
          "internalType": "bool",
          "name": "",
          "type": "bool"
        }
      ],
      "stateMutability": "view",
      "type": "function"
    },
    {
      "inputs": [],
      "name": "symbol",
      "outputs": [
        {
          "internalType": "string",
          "name": "",
          "type": "string"
        }
      ],
      "stateMutability": "view",
      "type": "function"
    },
    {
      "inputs": [
        {
          "internalType": "uint256",
          "name": "index",
          "type": "uint256"
        }
      ],
      "name": "tokenByIndex",
      "outputs": [
        {
          "internalType": "uint256",
          "name": "",
          "type": "uint256"
        }
      ],
      "stateMutability": "view",
      "type": "function"
    },
    {
      "inputs": [
        {
          "internalType": "address",
          "name": "owner",
          "type": "address"
        },
        {
          "internalType": "uint256",
          "name": "index",
          "type": "uint256"
        }
      ],
      "name": "tokenOfOwnerByIndex",
      "outputs": [
        {
          "internalType": "uint256",
          "name": "",
          "type": "uint256"
        }
      ],
      "stateMutability": "view",
      "type": "function"
    },
    {
      "inputs": [
        {
          "internalType": "uint256",
          "name": "tokenId",
          "type": "uint256"
        }
      ],
      "name": "tokenURI",
      "outputs": [
        {
          "internalType": "string",
          "name": "",
          "type": "string"
        }
      ],
      "stateMutability": "view",
      "type": "function"
    },
    {
      "inputs": [],
      "name": "totalSupply",
      "outputs": [
        {
          "internalType": "uint256",
          "name": "",
          "type": "uint256"
        }
      ],
      "stateMutability": "view",
      "type": "function"
    },
    {
      "inputs": [
        {
          "internalType": "address",
          "name": "from",
          "type": "address"
        },
        {
          "internalType": "address",
          "name": "to",
          "type": "address"
        },
        {
          "internalType": "uint256",
          "name": "tokenId",
          "type": "uint256"
        }
      ],
      "name": "transferFrom",
      "outputs": [],
      "stateMutability": "nonpayable",
      "type": "function"
    },
    {
      "inputs": [
        {
          "internalType": "address",
          "name": "newOwner",
          "type": "address"
        }
      ],
      "name": "transferOwnership",
      "outputs": [],
      "stateMutability": "nonpayable",
      "type": "function"
    }
  ],
  "bytecode": "0x608060405234801561001057600080fd5b50336040518060400160405280601081526020017f41492047656e65726174656420417274000000000000000000000000000000008152506040518060400160405280600581526020017f4149415254000000000000000000000000000000000000000000000000000000815250816000908161008d919061043d565b50806001908161009d919061043d565b505050600073ffffffffffffffffffffffffffffffffffffffff168173ffffffffffffffffffffffffffffffffffffffff16036101125760006040517f1e4fbdf70000000000000000000000000000000000000000000000000000000081526004016101099190610550565b60405180910390fd5b6101218161012760201b60201c565b5061056b565b6000600a60009054906101000a900473ffffffffffffffffffffffffffffffffffffffff16905081600a60006101000a81548173ffffffffffffffffffffffffffffffffffffffff021916908373ffffffffffffffffffffffffffffffffffffffff1602179055508173ffffffffffffffffffffffffffffffffffffffff168173ffffffffffffffffffffffffffffffffffffffff167f8be0079c531659141344cd1fd0a4f28419497f9722a3daafe3b4186f6b6457e060405160405180910390a35050565b600081519050919050565b7f4e487b7100000000000000000000000000000000000000000000000000000000600052604160045260246000fd5b7f4e487b7100000000000000000000000000000000000000000000000000000000600052602260045260246000fd5b6000600282049050600182168061026e57607f821691505b60208210810361028157610280610227565b5b50919050565b60008190508160005260206000209050919050565b60006020601f8301049050919050565b600082821b905092915050565b6000600883026102e97fffffffffffffffffffffffffffffffffffffffffffffffffffffffffffffffff826102ac565b6102f386836102ac565b95508019841693508086168417925050509392505050565b6000819050919050565b6000819050919050565b600061033a6103356103308461030b565b610315565b61030b565b9050919050565b6000819050919050565b6103548361031f565b61036861036082610341565b8484546102b9565b825550505050565b600090565b61037d610370565b61038881848461034b565b505050565b5b818110156103ac576103a1600082610375565b60018101905061038e565b5050565b601f8211156103f1576103c281610287565b6103cb8461029c565b810160208510156103da578190505b6103ee6103e68561029c565b83018261038d565b50505b505050565b600082821c905092915050565b6000610414600019846008026103f6565b1980831691505092915050565b600061042d8383610403565b9150826002028217905092915050565b610446826101ed565b67ffffffffffffffff81111561045f5761045e6101f8565b5b6104698254610256565b6104748282856103b0565b600060209050601f8311600181146104a75760008415610495578287015190505b61049f8582610421565b865550610507565b601f1984166104b586610287565b60005b828110156104dd578489015182556001820191506020850194506020810190506104b8565b868310156104fa57848901516104f6601f891682610403565b8355505b6001600288020188555050505b505050505050565b600073ffffffffffffffffffffffffffffffffffffffff82169050919050565b600061053a8261050f565b9050919050565b61054a8161052f565b82525050565b60006020820190506105656000830184610541565b92915050565b61328e8061057a6000396000f3fe608060405234801561001057600080fd5b50600436106101425760003560e01c8063715018a6116100b8578063a22cb4651161007c578063a22cb465146103a1578063b88d4fde146103bd578063c87b56dd146103d9578063cb80e5a314610409578063e985e9c514610439578063f2fde38b1461046957610142565b8063715018a6146102f7578063732077ca1461030157806386e34386146103355780638da5cb5b1461036557806395d89b411461038357610142565b806323b872dd1161010a57806323b872dd146101ff5780632f745c591461021b57806342842e0e1461024b5780634f6ccce7146102675780636352211e1461029757806370a08231146102c757610142565b806301ffc9a71461014757806306fdde0314610177578063081812fc14610195578063095ea7b3146101c557806318160ddd146101e1575b600080fd5b610161600480360381019061015c91906123e9565b610485565b60405161016e9190612431565b60405180910390f35b61017f6104ff565b60405161018c91906124dc565b60405180910390f35b6101af60048036038101906101aa9190612534565b610591565b6040516101bc91906125a2565b60405180910390f35b6101df60048036038101906101da91906125e9565b6105ad565b005b6101e96105c3565b6040516101f69190612638565b60405180910390f35b61021960048036038101906102149190612653565b6105d0565b005b610235600480360381019061023091906125e9565b6106d2565b6040516102429190612638565b60405180910390f35b61026560048036038101906102609190612653565b61077b565b005b610281600480360381019061027c9190612534565b61079b565b60405161028e9190612638565b60405180910390f35b6102b160048036038101906102ac9190612534565b610811565b6040516102be91906125a2565b60405180910390f35b6102e160048036038101906102dc91906126a6565b610823565b6040516102ee9190612638565b60405180910390f35b6102ff6108dd565b005b61031b60048036038101906103169190612534565b6108f1565b60405161032c9594939291906126ec565b60405180910390f35b61034f600480360381019061034a91906128ae565b610a57565b60405161035c9190612638565b60405180910390f35b61036d610b63565b60405161037a91906125a2565b60405180910390f35b61038b610b8d565b60405161039891906124dc565b60405180910390f35b6103bb60048036038101906103b69190612979565b610c1f565b005b6103d760048036038101906103d29190612a5a565b610c35565b005b6103f360048036038101906103ee9190612534565b610c5a565b60405161040091906124dc565b60405180910390f35b610423600480360381019061041e9190612534565b610cc3565b6040516104309190612bd1565b60405180910390f35b610453600480360381019061044e9190612bf3565b610ec2565b6040516104609190612431565b60405180910390f35b610483600480360381019061047e91906126a6565b610f56565b005b60007f780e9d63000000000000000000000000000000000000000000000000000000007bffffffffffffffffffffffffffffffffffffffffffffffffffffffff1916827bffffffffffffffffffffffffffffffffffffffffffffffffffffffff191614806104f857506104f782610fdc565b5b9050919050565b60606000805461050e90612c62565b80601f016020809104026020016040519081016040528092919081815260200182805461053a90612c62565b80156105875780601f1061055c57610100808354040283529160200191610587565b820191906000526020600020905b81548152906001019060200180831161056a57829003601f168201915b5050505050905090565b600061059c826110be565b506105a682611146565b9050919050565b6105bf82826105ba611183565b61118b565b5050565b6000600880549050905090565b600073ffffffffffffffffffffffffffffffffffffffff168273ffffffffffffffffffffffffffffffffffffffff16036106425760006040517f64a0ae9200000000000000000000000000000000000000000000000000000000815260040161063991906125a2565b60405180910390fd5b60006106568383610651611183565b61119d565b90508373ffffffffffffffffffffffffffffffffffffffff168173ffffffffffffffffffffffffffffffffffffffff16146106cc578382826040517f64283d7b0000000000000000000000000000000000000000000000000000000081526004016106c393929190612c93565b60405180910390fd5b50505050565b60006106dd83610823565b82106107225782826040517fa57d13dc000000000000000000000000000000000000000000000000000000008152600401610719929190612cca565b60405180910390fd5b600660008473ffffffffffffffffffffffffffffffffffffffff1673ffffffffffffffffffffffffffffffffffffffff168152602001908152602001600020600083815260200190815260200160002054905092915050565b61079683838360405180602001604052806000815250610c35565b505050565b60006107a56105c3565b82106107eb576000826040517fa57d13dc0000000000000000000000000000000000000000000000000000000081526004016107e2929190612cca565b60405180910390fd5b600882815481106107ff576107fe612cf3565b5b90600052602060002001549050919050565b600061081c826110be565b9050919050565b60008073ffffffffffffffffffffffffffffffffffffffff168273ffffffffffffffffffffffffffffffffffffffff16036108965760006040517f89c62b6400000000000000000000000000000000000000000000000000000000815260040161088d91906125a2565b60405180910390fd5b600360008373ffffffffffffffffffffffffffffffffffffffff1673ffffffffffffffffffffffffffffffffffffffff168152602001908152602001600020549050919050565b6108e56112ba565b6108ef6000611341565b565b600c6020528060005260406000206000915090508060000160009054906101000a900473ffffffffffffffffffffffffffffffffffffffff169080600101805461093a90612c62565b80601f016020809104026020016040519081016040528092919081815260200182805461096690612c62565b80156109b35780601f10610988576101008083540402835291602001916109b3565b820191906000526020600020905b81548152906001019060200180831161099657829003601f168201915b5050505050908060020180546109c890612c62565b80601f01602080910402602001604051908101604052809291908181526020018280546109f490612c62565b8015610a415780601f10610a1657610100808354040283529160200191610a41565b820191906000526020600020905b815481529060010190602001808311610a2457829003601f168201915b5050505050908060030154908060040154905085565b600080600b6000815480929190610a6d90612d51565b919050559050610a7d8682611407565b6040518060a001604052803373ffffffffffffffffffffffffffffffffffffffff16815260200186815260200185815260200184815260200142815250600c600083815260200190815260200160002060008201518160000160006101000a81548173ffffffffffffffffffffffffffffffffffffffff021916908373ffffffffffffffffffffffffffffffffffffffff1602179055506020820151816001019081610b299190612f45565b506040820151816002019081610b3f9190612f45565b50606082015181600301556080820151816004015590505080915050949350505050565b6000600a60009054906101000a900473ffffffffffffffffffffffffffffffffffffffff16905090565b606060018054610b9c90612c62565b80601f0160208091040260200160405190810160405280929190818152602001828054610bc890612c62565b8015610c155780601f10610bea57610100808354040283529160200191610c15565b820191906000526020600020905b815481529060010190602001808311610bf857829003601f168201915b5050505050905090565b610c31610c2a611183565b8383611425565b5050565b610c408484846105d0565b610c54610c4b611183565b85858585611594565b50505050565b6060610c65826110be565b506000610c70611745565b90506000815111610c905760405180602001604052806000815250610cbb565b80610c9a8461175c565b604051602001610cab929190613053565b6040516020818303038152906040525b915050919050565b610ccb612335565b600b548210610d0f576040517f08c379a0000000000000000000000000000000000000000000000000000000008152600401610d06906130c3565b60405180910390fd5b600c60008381526020019081526020016000206040518060a00160405290816000820160009054906101000a900473ffffffffffffffffffffffffffffffffffffffff1673ffffffffffffffffffffffffffffffffffffffff1673ffffffffffffffffffffffffffffffffffffffff168152602001600182018054610d9390612c62565b80601f0160208091040260200160405190810160405280929190818152602001828054610dbf90612c62565b8015610e0c5780601f10610de157610100808354040283529160200191610e0c565b820191906000526020600020905b815481529060010190602001808311610def57829003601f168201915b50505050508152602001600282018054610e2590612c62565b80601f0160208091040260200160405190810160405280929190818152602001828054610e5190612c62565b8015610e9e5780601f10610e7357610100808354040283529160200191610e9e565b820191906000526020600020905b815481529060010190602001808311610e8157829003601f168201915b50505050508152602001600382015481526020016004820154815250509050919050565b6000600560008473ffffffffffffffffffffffffffffffffffffffff1673ffffffffffffffffffffffffffffffffffffffff16815260200190815260200160002060008373ffffffffffffffffffffffffffffffffffffffff1673ffffffffffffffffffffffffffffffffffffffff16815260200190815260200160002060009054906101000a900460ff16905092915050565b610f5e6112ba565b600073ffffffffffffffffffffffffffffffffffffffff168173ffffffffffffffffffffffffffffffffffffffff1603610fd05760006040517f1e4fbdf7000000000000000000000000000000000000000000000000000000008152600401610fc791906125a2565b60405180910390fd5b610fd981611341565b50565b60007f80ac58cd000000000000000000000000000000000000000000000000000000007bffffffffffffffffffffffffffffffffffffffffffffffffffffffff1916827bffffffffffffffffffffffffffffffffffffffffffffffffffffffff191614806110a757507f5b5e139f000000000000000000000000000000000000000000000000000000007bffffffffffffffffffffffffffffffffffffffffffffffffffffffff1916827bffffffffffffffffffffffffffffffffffffffffffffffffffffffff1916145b806110b757506110b68261182a565b5b9050919050565b6000806110ca83611894565b9050600073ffffffffffffffffffffffffffffffffffffffff168173ffffffffffffffffffffffffffffffffffffffff160361113d57826040517f7e2732890000000000000000000000000000000000000000000000000000000081526004016111349190612638565b60405180910390fd5b80915050919050565b60006004600083815260200190815260200160002060009054906101000a900473ffffffffffffffffffffffffffffffffffffffff169050919050565b600033905090565b61119883838360016118d1565b505050565b6000806111ab858585611a96565b9050600073ffffffffffffffffffffffffffffffffffffffff168173ffffffffffffffffffffffffffffffffffffffff16036111ef576111ea84611cb0565b61122e565b8473ffffffffffffffffffffffffffffffffffffffff168173ffffffffffffffffffffffffffffffffffffffff161461122d5761122c8185611cf9565b5b5b600073ffffffffffffffffffffffffffffffffffffffff168573ffffffffffffffffffffffffffffffffffffffff16036112705761126b84611de4565b6112af565b8473ffffffffffffffffffffffffffffffffffffffff168173ffffffffffffffffffffffffffffffffffffffff16146112ae576112ad8585611eb5565b5b5b809150509392505050565b6112c2611183565b73ffffffffffffffffffffffffffffffffffffffff166112e0610b63565b73ffffffffffffffffffffffffffffffffffffffff161461133f57611303611183565b6040517f118cdaa700000000000000000000000000000000000000000000000000000000815260040161133691906125a2565b60405180910390fd5b565b6000600a60009054906101000a900473ffffffffffffffffffffffffffffffffffffffff16905081600a60006101000a81548173ffffffffffffffffffffffffffffffffffffffff021916908373ffffffffffffffffffffffffffffffffffffffff1602179055508173ffffffffffffffffffffffffffffffffffffffff168173ffffffffffffffffffffffffffffffffffffffff167f8be0079c531659141344cd1fd0a4f28419497f9722a3daafe3b4186f6b6457e060405160405180910390a35050565b611421828260405180602001604052806000815250611f40565b5050565b600073ffffffffffffffffffffffffffffffffffffffff168273ffffffffffffffffffffffffffffffffffffffff160361149657816040517f5b08ba1800000000000000000000000000000000000000000000000000000000815260040161148d91906125a2565b60405180910390fd5b80600560008573ffffffffffffffffffffffffffffffffffffffff1673ffffffffffffffffffffffffffffffffffffffff16815260200190815260200160002060008473ffffffffffffffffffffffffffffffffffffffff1673ffffffffffffffffffffffffffffffffffffffff16815260200190815260200160002060006101000a81548160ff0219169083151502179055508173ffffffffffffffffffffffffffffffffffffffff168373ffffffffffffffffffffffffffffffffffffffff167f17307eab39ab6107e8899845ad3d59bd9653f200f220920489ca2b5937696c31836040516115879190612431565b60405180910390a3505050565b60008373ffffffffffffffffffffffffffffffffffffffff163b111561173e578273ffffffffffffffffffffffffffffffffffffffff1663150b7a02868685856040518563ffffffff1660e01b81526004016115f39493929190613138565b6020604051808303816000875af192505050801561162f57506040513d601f19601f8201168201806040525081019061162c9190613199565b60015b6116b3573d806000811461165f576040519150601f19603f3d011682016040523d82523d6000602084013e611664565b606091505b5060008151036116ab57836040517f64a0ae920000000000000000000000000000000000000000000000000000000081526004016116a291906125a2565b60405180910390fd5b805181602001fd5b63150b7a0260e01b7bffffffffffffffffffffffffffffffffffffffffffffffffffffffff1916817bffffffffffffffffffffffffffffffffffffffffffffffffffffffff19161461173c57836040517f64a0ae9200000000000000000000000000000000000000000000000000000000815260040161173391906125a2565b60405180910390fd5b505b5050505050565b606060405180602001604052806000815250905090565b60606000600161176b84611f64565b01905060008167ffffffffffffffff81111561178a57611789612757565b5b6040519080825280601f01601f1916602001820160405280156117bc5781602001600182028036833780820191505090505b509050600082602001820190505b60011561181f578080600190039150507f3031323334353637383961626364656600000000000000000000000000000000600a86061a8153600a8581611813576118126131c6565b5b049450600085036117ca575b819350505050919050565b60007f01ffc9a7000000000000000000000000000000000000000000000000000000007bffffffffffffffffffffffffffffffffffffffffffffffffffffffff1916827bffffffffffffffffffffffffffffffffffffffffffffffffffffffff1916149050919050565b60006002600083815260200190815260200160002060009054906101000a900473ffffffffffffffffffffffffffffffffffffffff169050919050565b808061190a5750600073ffffffffffffffffffffffffffffffffffffffff168273ffffffffffffffffffffffffffffffffffffffff1614155b15611a3e57600061191a846110be565b9050600073ffffffffffffffffffffffffffffffffffffffff168373ffffffffffffffffffffffffffffffffffffffff161415801561198557508273ffffffffffffffffffffffffffffffffffffffff168173ffffffffffffffffffffffffffffffffffffffff1614155b801561199857506119968184610ec2565b155b156119da57826040517fa9fbf51f0000000000000000000000000000000000000000000000000000000081526004016119d191906125a2565b60405180910390fd5b8115611a3c57838573ffffffffffffffffffffffffffffffffffffffff168273ffffffffffffffffffffffffffffffffffffffff167f8c5be1e5ebec7d5bd14f71427d1e84f3dd0314c0f7b2291e5b200ac8c7c3b92560405160405180910390a45b505b836004600085815260200190815260200160002060006101000a81548173ffffffffffffffffffffffffffffffffffffffff021916908373ffffffffffffffffffffffffffffffffffffffff16021790555050505050565b600080611aa284611894565b9050600073ffffffffffffffffffffffffffffffffffffffff168373ffffffffffffffffffffffffffffffffffffffff1614611ae457611ae38184866120b7565b5b600073ffffffffffffffffffffffffffffffffffffffff168173ffffffffffffffffffffffffffffffffffffffff1614611b7557611b266000856000806118d1565b6001600360008373ffffffffffffffffffffffffffffffffffffffff1673ffffffffffffffffffffffffffffffffffffffff168152602001908152602001600020600082825403925050819055505b600073ffffffffffffffffffffffffffffffffffffffff168573ffffffffffffffffffffffffffffffffffffffff1614611bf8576001600360008773ffffffffffffffffffffffffffffffffffffffff1673ffffffffffffffffffffffffffffffffffffffff168152602001908152602001600020600082825401925050819055505b846002600086815260200190815260200160002060006101000a81548173ffffffffffffffffffffffffffffffffffffffff021916908373ffffffffffffffffffffffffffffffffffffffff160217905550838573ffffffffffffffffffffffffffffffffffffffff168273ffffffffffffffffffffffffffffffffffffffff167fddf252ad1be2c89b69c2b068fc378daa952ba7f163c4a11628f55a4df523b3ef60405160405180910390a4809150509392505050565b6008805490506009600083815260200190815260200160002081905550600881908060018154018082558091505060019003906000526020600020016000909190919091505550565b6000611d0483610823565b90506000600760008481526020019081526020016000205490506000600660008673ffffffffffffffffffffffffffffffffffffffff1673ffffffffffffffffffffffffffffffffffffffff1681526020019081526020016000209050828214611db05760008160008581526020019081526020016000205490508082600085815260200190815260200160002081905550826007600083815260200190815260200160002081905550505b6007600085815260200190815260200160002060009055806000848152602001908152602001600020600090555050505050565b60006001600880549050611df891906131f5565b9050600060096000848152602001908152602001600020549050600060088381548110611e2857611e27612cf3565b5b906000526020600020015490508060088381548110611e4a57611e49612cf3565b5b906000526020600020018190555081600960008381526020019081526020016000208190555060096000858152602001908152602001600020600090556008805480611e9957611e98613229565b5b6001900381819060005260206000200160009055905550505050565b60006001611ec284610823565b611ecc91906131f5565b905081600660008573ffffffffffffffffffffffffffffffffffffffff1673ffffffffffffffffffffffffffffffffffffffff168152602001908152602001600020600083815260200190815260200160002081905550806007600084815260200190815260200160002081905550505050565b611f4a838361217b565b611f5f611f55611183565b6000858585611594565b505050565b600080600090507a184f03e93ff9f4daa797ed6e38ed64bf6a1f0100000000000000008310611fc2577a184f03e93ff9f4daa797ed6e38ed64bf6a1f0100000000000000008381611fb857611fb76131c6565b5b0492506040810190505b6d04ee2d6d415b85acef81000000008310611fff576d04ee2d6d415b85acef81000000008381611ff557611ff46131c6565b5b0492506020810190505b662386f26fc10000831061202e57662386f26fc100008381612024576120236131c6565b5b0492506010810190505b6305f5e1008310612057576305f5e100838161204d5761204c6131c6565b5b0492506008810190505b612710831061207c576127108381612072576120716131c6565b5b0492506004810190505b6064831061209f5760648381612095576120946131c6565b5b0492506002810190505b600a83106120ae576001810190505b80915050919050565b6120c2838383612274565b61217657600073ffffffffffffffffffffffffffffffffffffffff168373ffffffffffffffffffffffffffffffffffffffff160361213757806040517f7e27328900000000000000000000000000000000000000000000000000000000815260040161212e9190612638565b60405180910390fd5b81816040517f177e802f00000000000000000000000000000000000000000000000000000000815260040161216d929190612cca565b60405180910390fd5b505050565b600073ffffffffffffffffffffffffffffffffffffffff168273ffffffffffffffffffffffffffffffffffffffff16036121ed5760006040517f64a0ae920000000000000000000000000000000000000000000000000000000081526004016121e491906125a2565b60405180910390fd5b60006121fb8383600061119d565b9050600073ffffffffffffffffffffffffffffffffffffffff168173ffffffffffffffffffffffffffffffffffffffff161461226f5760006040517f73c6ac6e00000000000000000000000000000000000000000000000000000000815260040161226691906125a2565b60405180910390fd5b505050565b60008073ffffffffffffffffffffffffffffffffffffffff168373ffffffffffffffffffffffffffffffffffffffff161415801561232c57508273ffffffffffffffffffffffffffffffffffffffff168473ffffffffffffffffffffffffffffffffffffffff1614806122ed57506122ec8484610ec2565b5b8061232b57508273ffffffffffffffffffffffffffffffffffffffff1661231383611146565b73ffffffffffffffffffffffffffffffffffffffff16145b5b90509392505050565b6040518060a00160405280600073ffffffffffffffffffffffffffffffffffffffff168152602001606081526020016060815260200160008019168152602001600081525090565b6000604051905090565b600080fd5b600080fd5b60007fffffffff0000000000000000000000000000000000000000000000000000000082169050919050565b6123c681612391565b81146123d157600080fd5b50565b6000813590506123e3816123bd565b92915050565b6000602082840312156123ff576123fe612387565b5b600061240d848285016123d4565b91505092915050565b60008115159050919050565b61242b81612416565b82525050565b60006020820190506124466000830184612422565b92915050565b600081519050919050565b600082825260208201905092915050565b60005b8381101561248657808201518184015260208101905061246b565b60008484015250505050565b6000601f19601f8301169050919050565b60006124ae8261244c565b6124b88185612457565b93506124c8818560208601612468565b6124d181612492565b840191505092915050565b600060208201905081810360008301526124f681846124a3565b905092915050565b6000819050919050565b612511816124fe565b811461251c57600080fd5b50565b60008135905061252e81612508565b92915050565b60006020828403121561254a57612549612387565b5b60006125588482850161251f565b91505092915050565b600073ffffffffffffffffffffffffffffffffffffffff82169050919050565b600061258c82612561565b9050919050565b61259c81612581565b82525050565b60006020820190506125b76000830184612593565b92915050565b6125c681612581565b81146125d157600080fd5b50565b6000813590506125e3816125bd565b92915050565b60008060408385031215612600576125ff612387565b5b600061260e858286016125d4565b925050602061261f8582860161251f565b9150509250929050565b612632816124fe565b82525050565b600060208201905061264d6000830184612629565b92915050565b60008060006060848603121561266c5761266b612387565b5b600061267a868287016125d4565b935050602061268b868287016125d4565b925050604061269c8682870161251f565b9150509250925092565b6000602082840312156126bc576126bb612387565b5b60006126ca848285016125d4565b91505092915050565b6000819050919050565b6126e6816126d3565b82525050565b600060a0820190506127016000830188612593565b818103602083015261271381876124a3565b9050818103604083015261272781866124a3565b905061273660608301856126dd565b6127436080830184612629565b9695505050505050565b600080fd5b600080fd5b7f4e487b7100000000000000000000000000000000000000000000000000000000600052604160045260246000fd5b61278f82612492565b810181811067ffffffffffffffff821117156127ae576127ad612757565b5b80604052505050565b60006127c161237d565b90506127cd8282612786565b919050565b600067ffffffffffffffff8211156127ed576127ec612757565b5b6127f682612492565b9050602081019050919050565b82818337600083830152505050565b6000612825612820846127d2565b6127b7565b90508281526020810184848401111561284157612840612752565b5b61284c848285612803565b509392505050565b600082601f8301126128695761286861274d565b5b8135612879848260208601612812565b91505092915050565b61288b816126d3565b811461289657600080fd5b50565b6000813590506128a881612882565b92915050565b600080600080608085870312156128c8576128c7612387565b5b60006128d6878288016125d4565b945050602085013567ffffffffffffffff8111156128f7576128f661238c565b5b61290387828801612854565b935050604085013567ffffffffffffffff8111156129245761292361238c565b5b61293087828801612854565b925050606061294187828801612899565b91505092959194509250565b61295681612416565b811461296157600080fd5b50565b6000813590506129738161294d565b92915050565b600080604083850312156129905761298f612387565b5b600061299e858286016125d4565b92505060206129af85828601612964565b9150509250929050565b600067ffffffffffffffff8211156129d4576129d3612757565b5b6129dd82612492565b9050602081019050919050565b60006129fd6129f8846129b9565b6127b7565b905082815260208101848484011115612a1957612a18612752565b5b612a24848285612803565b509392505050565b600082601f830112612a4157612a4061274d565b5b8135612a518482602086016129ea565b91505092915050565b60008060008060808587031215612a7457612a73612387565b5b6000612a82878288016125d4565b9450506020612a93878288016125d4565b9350506040612aa48782880161251f565b925050606085013567ffffffffffffffff811115612ac557612ac461238c565b5b612ad187828801612a2c565b91505092959194509250565b612ae681612581565b82525050565b600082825260208201905092915050565b6000612b088261244c565b612b128185612aec565b9350612b22818560208601612468565b612b2b81612492565b840191505092915050565b612b3f816126d3565b82525050565b612b4e816124fe565b82525050565b600060a083016000830151612b6c6000860182612add565b5060208301518482036020860152612b848282612afd565b91505060408301518482036040860152612b9e8282612afd565b9150506060830151612bb36060860182612b36565b506080830151612bc66080860182612b45565b508091505092915050565b60006020820190508181036000830152612beb8184612b54565b905092915050565b60008060408385031215612c0a57612c09612387565b5b6000612c18858286016125d4565b9250506020612c29858286016125d4565b9150509250929050565b7f4e487b7100000000000000000000000000000000000000000000000000000000600052602260045260246000fd5b60006002820490506001821680612c7a57607f821691505b602082108103612c8d57612c8c612c33565b5b50919050565b6000606082019050612ca86000830186612593565b612cb56020830185612629565b612cc26040830184612593565b949350505050565b6000604082019050612cdf6000830185612593565b612cec6020830184612629565b9392505050565b7f4e487b7100000000000000000000000000000000000000000000000000000000600052603260045260246000fd5b7f4e487b7100000000000000000000000000000000000000000000000000000000600052601160045260246000fd5b6000612d5c826124fe565b91507fffffffffffffffffffffffffffffffffffffffffffffffffffffffffffffffff8203612d8e57612d8d612d22565b5b600182019050919050565b60008190508160005260206000209050919050565b60006020601f8301049050919050565b600082821b905092915050565b600060088302612dfb7fffffffffffffffffffffffffffffffffffffffffffffffffffffffffffffffff82612dbe565b612e058683612dbe565b95508019841693508086168417925050509392505050565b6000819050919050565b6000612e42612e3d612e38846124fe565b612e1d565b6124fe565b9050919050565b6000819050919050565b612e5c83612e27565b612e70612e6882612e49565b848454612dcb565b825550505050565b600090565b612e85612e78565b612e90818484612e53565b505050565b5b81811015612eb457612ea9600082612e7d565b600181019050612e96565b5050565b601f821115612ef957612eca81612d99565b612ed384612dae565b81016020851015612ee2578190505b612ef6612eee85612dae565b830182612e95565b50505b505050565b600082821c905092915050565b6000612f1c60001984600802612efe565b1980831691505092915050565b6000612f358383612f0b565b9150826002028217905092915050565b612f4e8261244c565b67ffffffffffffffff811115612f6757612f66612757565b5b612f718254612c62565b612f7c828285612eb8565b600060209050601f831160018114612faf5760008415612f9d578287015190505b612fa78582612f29565b86555061300f565b601f198416612fbd86612d99565b60005b82811015612fe557848901518255600182019150602085019450602081019050612fc0565b868310156130025784890151612ffe601f891682612f0b565b8355505b6001600288020188555050505b505050505050565b600081905092915050565b600061302d8261244c565b6130378185613017565b9350613047818560208601612468565b80840191505092915050565b600061305f8285613022565b915061306b8284613022565b91508190509392505050565b7f546f6b656e20646f6573206e6f74206578697374000000000000000000000000600082015250565b60006130ad601483612457565b91506130b882613077565b602082019050919050565b600060208201905081810360008301526130dc816130a0565b9050919050565b600081519050919050565b600082825260208201905092915050565b600061310a826130e3565b61311481856130ee565b9350613124818560208601612468565b61312d81612492565b840191505092915050565b600060808201905061314d6000830187612593565b61315a6020830186612593565b6131676040830185612629565b818103606083015261317981846130ff565b905095945050505050565b600081519050613193816123bd565b92915050565b6000602082840312156131af576131ae612387565b5b60006131bd84828501613184565b91505092915050565b7f4e487b7100000000000000000000000000000000000000000000000000000000600052601260045260246000fd5b6000613200826124fe565b915061320b836124fe565b925082820390508181111561322357613222612d22565b5b92915050565b7f4e487b7100000000000000000000000000000000000000000000000000000000600052603160045260246000fdfea2646970667358221220534a69368232bf4a68df5477db05ac4381652711f7aafff68b0b56687760921c64736f6c634300081c0033",
  "linkReferences": {},
  "deployedLinkReferences": {}
}