{
  "_format": "hh-sol-artifact-1",
  "contractName": "AIART721",
  "sourceName": "src/contracts/NFT_V1.sol",
  "abi": [
    {
      "inputs": [],
      "stateMutability": "nonpayable",
      "type": "constructor"
    },
    {
      "inputs": [],
      "name": "ERC721EnumerableForbiddenBatchMint",
      "type": "error"
    },
    {
      "inputs": [
        {
          "internalType": "address",
          "name": "sender",
          "type": "address"
        },
        {
          "internalType": "uint256",
          "name": "tokenId",
          "type": "uint256"
        },
        {
          "internalType": "address",
          "name": "owner",
          "type": "address"
        }
      ],
      "name": "ERC721IncorrectOwner",
      "type": "error"
    },
    {
      "inputs": [
        {
          "internalType": "address",
          "name": "operator",
          "type": "address"
        },
        {
          "internalType": "uint256",
          "name": "tokenId",
          "type": "uint256"
        }
      ],
      "name": "ERC721InsufficientApproval",
      "type": "error"
    },
    {
      "inputs": [
        {
          "internalType": "address",
          "name": "approver",
          "type": "address"
        }
      ],
      "name": "ERC721InvalidApprover",
      "type": "error"
    },
    {
      "inputs": [
        {
          "internalType": "address",
          "name": "operator",
          "type": "address"
        }
      ],
      "name": "ERC721InvalidOperator",
      "type": "error"
    },
    {
      "inputs": [
        {
          "internalType": "address",
          "name": "owner",
          "type": "address"
        }
      ],
      "name": "ERC721InvalidOwner",
      "type": "error"
    },
    {
      "inputs": [
        {
          "internalType": "address",
          "name": "receiver",
          "type": "address"
        }
      ],
      "name": "ERC721InvalidReceiver",
      "type": "error"
    },
    {
      "inputs": [
        {
          "internalType": "address",
          "name": "sender",
          "type": "address"
        }
      ],
      "name": "ERC721InvalidSender",
      "type": "error"
    },
    {
      "inputs": [
        {
          "internalType": "uint256",
          "name": "tokenId",
          "type": "uint256"
        }
      ],
      "name": "ERC721NonexistentToken",
      "type": "error"
    },
    {
      "inputs": [
        {
          "internalType": "address",
          "name": "owner",
          "type": "address"
        },
        {
          "internalType": "uint256",
          "name": "index",
          "type": "uint256"
        }
      ],
      "name": "ERC721OutOfBoundsIndex",
      "type": "error"
    },
    {
      "inputs": [
        {
          "internalType": "address",
          "name": "owner",
          "type": "address"
        }
      ],
      "name": "OwnableInvalidOwner",
      "type": "error"
    },
    {
      "inputs": [
        {
          "internalType": "address",
          "name": "account",
          "type": "address"
        }
      ],
      "name": "OwnableUnauthorizedAccount",
      "type": "error"
    },
    {
      "anonymous": false,
      "inputs": [
        {
          "indexed": true,
          "internalType": "address",
          "name": "owner",
          "type": "address"
        },
        {
          "indexed": true,
          "internalType": "address",
          "name": "approved",
          "type": "address"
        },
        {
          "indexed": true,
          "internalType": "uint256",
          "name": "tokenId",
          "type": "uint256"
        }
      ],
      "name": "Approval",
      "type": "event"
    },
    {
      "anonymous": false,
      "inputs": [
        {
          "indexed": true,
          "internalType": "address",
          "name": "owner",
          "type": "address"
        },
        {
          "indexed": true,
          "internalType": "address",
          "name": "operator",
          "type": "address"
        },
        {
          "indexed": false,
          "internalType": "bool",
          "name": "approved",
          "type": "bool"
        }
      ],
      "name": "ApprovalForAll",
      "type": "event"
    },
    {
      "anonymous": false,
      "inputs": [
        {
          "indexed": false,
          "internalType": "uint256",
          "name": "_fromTokenId",
          "type": "uint256"
        },
        {
          "indexed": false,
          "internalType": "uint256",
          "name": "_toTokenId",
          "type": "uint256"
        }
      ],
      "name": "BatchMetadataUpdate",
      "type": "event"
    },
    {
      "anonymous": false,
      "inputs": [
        {
          "indexed": false,
          "internalType": "uint256",
          "name": "_tokenId",
          "type": "uint256"
        }
      ],
      "name": "MetadataUpdate",
      "type": "event"
    },
    {
      "anonymous": false,
      "inputs": [
        {
          "indexed": true,
          "internalType": "address",
          "name": "previousOwner",
          "type": "address"
        },
        {
          "indexed": true,
          "internalType": "address",
          "name": "newOwner",
          "type": "address"
        }
      ],
      "name": "OwnershipTransferred",
      "type": "event"
    },
    {
      "anonymous": false,
      "inputs": [
        {
          "indexed": true,
          "internalType": "address",
          "name": "from",
          "type": "address"
        },
        {
          "indexed": true,
          "internalType": "address",
          "name": "to",
          "type": "address"
        },
        {
          "indexed": true,
          "internalType": "uint256",
          "name": "tokenId",
          "type": "uint256"
        }
      ],
      "name": "Transfer",
      "type": "event"
    },
    {
      "inputs": [
        {
          "internalType": "address",
          "name": "to",
          "type": "address"
        },
        {
          "internalType": "uint256",
          "name": "tokenId",
          "type": "uint256"
        }
      ],
      "name": "approve",
      "outputs": [],
      "stateMutability": "nonpayable",
      "type": "function"
    },
    {
      "inputs": [
        {
          "internalType": "uint256",
          "name": "",
          "type": "uint256"
        }
      ],
      "name": "artworkDetails",
      "outputs": [
        {
          "internalType": "address",
          "name": "creator",
          "type": "address"
        },
        {
          "internalType": "string",
          "name": "prompt",
          "type": "string"
        },
        {
          "internalType": "string",
          "name": "aiModelUsed",
          "type": "string"
        },
        {
          "internalType": "bytes32",
          "name": "aiModelSignature",
          "type": "bytes32"
        },
        {
          "internalType": "uint256",
          "name": "timestamp",
          "type": "uint256"
        },
        {
          "internalType": "string",
          "name": "imageCID",
          "type": "string"
        }
      ],
      "stateMutability": "view",
      "type": "function"
    },
    {
      "inputs": [
        {
          "internalType": "address",
          "name": "owner",
          "type": "address"
        }
      ],
      "name": "balanceOf",
      "outputs": [
        {
          "internalType": "uint256",
          "name": "",
          "type": "uint256"
        }
      ],
      "stateMutability": "view",
      "type": "function"
    },
    {
      "inputs": [
        {
          "internalType": "uint256",
          "name": "tokenId",
          "type": "uint256"
        }
      ],
      "name": "getApproved",
      "outputs": [
        {
          "internalType": "address",
          "name": "",
          "type": "address"
        }
      ],
      "stateMutability": "view",
      "type": "function"
    },
    {
      "inputs": [
        {
          "internalType": "address",
          "name": "owner",
          "type": "address"
        },
        {
          "internalType": "address",
          "name": "operator",
          "type": "address"
        }
      ],
      "name": "isApprovedForAll",
      "outputs": [
        {
          "internalType": "bool",
          "name": "",
          "type": "bool"
        }
      ],
      "stateMutability": "view",
      "type": "function"
    },
    {
      "inputs": [
        {
          "internalType": "address",
          "name": "to",
          "type": "address"
        },
        {
          "internalType": "string",
          "name": "prompt",
          "type": "string"
        },
        {
          "internalType": "string",
          "name": "aiModelUsed",
          "type": "string"
        },
        {
          "internalType": "bytes32",
          "name": "aiModelSignature",
          "type": "bytes32"
        },
        {
          "internalType": "string",
          "name": "imageCID",
          "type": "string"
        }
      ],
      "name": "mint",
      "outputs": [
        {
          "internalType": "uint256",
          "name": "",
          "type": "uint256"
        }
      ],
      "stateMutability": "payable",
      "type": "function"
    },
    {
      "inputs": [],
      "name": "mintPrice",
      "outputs": [
        {
          "internalType": "uint256",
          "name": "",
          "type": "uint256"
        }
      ],
      "stateMutability": "view",
      "type": "function"
    },
    {
      "inputs": [],
      "name": "name",
      "outputs": [
        {
          "internalType": "string",
          "name": "",
          "type": "string"
        }
      ],
      "stateMutability": "view",
      "type": "function"
    },
    {
      "inputs": [],
      "name": "owner",
      "outputs": [
        {
          "internalType": "address",
          "name": "",
          "type": "address"
        }
      ],
      "stateMutability": "view",
      "type": "function"
    },
    {
      "inputs": [
        {
          "internalType": "uint256",
          "name": "tokenId",
          "type": "uint256"
        }
      ],
      "name": "ownerOf",
      "outputs": [
        {
          "internalType": "address",
          "name": "",
          "type": "address"
        }
      ],
      "stateMutability": "view",
      "type": "function"
    },
    {
      "inputs": [],
      "name": "renounceOwnership",
      "outputs": [],
      "stateMutability": "nonpayable",
      "type": "function"
    },
    {
      "inputs": [
        {
          "internalType": "address",
          "name": "from",
          "type": "address"
        },
        {
          "internalType": "address",
          "name": "to",
          "type": "address"
        },
        {
          "internalType": "uint256",
          "name": "tokenId",
          "type": "uint256"
        }
      ],
      "name": "safeTransferFrom",
      "outputs": [],
      "stateMutability": "nonpayable",
      "type": "function"
    },
    {
      "inputs": [
        {
          "internalType": "address",
          "name": "from",
          "type": "address"
        },
        {
          "internalType": "address",
          "name": "to",
          "type": "address"
        },
        {
          "internalType": "uint256",
          "name": "tokenId",
          "type": "uint256"
        },
        {
          "internalType": "bytes",
          "name": "data",
          "type": "bytes"
        }
      ],
      "name": "safeTransferFrom",
      "outputs": [],
      "stateMutability": "nonpayable",
      "type": "function"
    },
    {
      "inputs": [
        {
          "internalType": "address",
          "name": "operator",
          "type": "address"
        },
        {
          "internalType": "bool",
          "name": "approved",
          "type": "bool"
        }
      ],
      "name": "setApprovalForAll",
      "outputs": [],
      "stateMutability": "nonpayable",
      "type": "function"
    },
    {
      "inputs": [
        {
          "internalType": "bytes4",
          "name": "interfaceId",
          "type": "bytes4"
        }
      ],
      "name": "supportsInterface",
      "outputs": [
        {
          "internalType": "bool",
          "name": "",
          "type": "bool"
        }
      ],
      "stateMutability": "view",
      "type": "function"
    },
    {
      "inputs": [],
      "name": "symbol",
      "outputs": [
        {
          "internalType": "string",
          "name": "",
          "type": "string"
        }
      ],
      "stateMutability": "view",
      "type": "function"
    },
    {
      "inputs": [
        {
          "internalType": "uint256",
          "name": "index",
          "type": "uint256"
        }
      ],
      "name": "tokenByIndex",
      "outputs": [
        {
          "internalType": "uint256",
          "name": "",
          "type": "uint256"
        }
      ],
      "stateMutability": "view",
      "type": "function"
    },
    {
      "inputs": [
        {
          "internalType": "address",
          "name": "owner",
          "type": "address"
        },
        {
          "internalType": "uint256",
          "name": "index",
          "type": "uint256"
        }
      ],
      "name": "tokenOfOwnerByIndex",
      "outputs": [
        {
          "internalType": "uint256",
          "name": "",
          "type": "uint256"
        }
      ],
      "stateMutability": "view",
      "type": "function"
    },
    {
      "inputs": [
        {
          "internalType": "uint256",
          "name": "tokenId",
          "type": "uint256"
        }
      ],
      "name": "tokenURI",
      "outputs": [
        {
          "internalType": "string",
          "name": "",
          "type": "string"
        }
      ],
      "stateMutability": "view",
      "type": "function"
    },
    {
      "inputs": [],
      "name": "totalSupply",
      "outputs": [
        {
          "internalType": "uint256",
          "name": "",
          "type": "uint256"
        }
      ],
      "stateMutability": "view",
      "type": "function"
    },
    {
      "inputs": [
        {
          "internalType": "address",
          "name": "from",
          "type": "address"
        },
        {
          "internalType": "address",
          "name": "to",
          "type": "address"
        },
        {
          "internalType": "uint256",
          "name": "tokenId",
          "type": "uint256"
        }
      ],
      "name": "transferFrom",
      "outputs": [],
      "stateMutability": "nonpayable",
      "type": "function"
    },
    {
      "inputs": [
        {
          "internalType": "address",
          "name": "newOwner",
          "type": "address"
        }
      ],
      "name": "transferOwnership",
      "outputs": [],
      "stateMutability": "nonpayable",
      "type": "function"
    }
  ],
  "bytecode": "0x6080604052662386f26fc10000600d5534801561001b57600080fd5b50336040518060400160405280601081526020017f41492047656e65726174656420417274000000000000000000000000000000008152506040518060400160405280600581526020017f414941525400000000000000000000000000000000000000000000000000000081525081600090816100989190610448565b5080600190816100a89190610448565b505050600073ffffffffffffffffffffffffffffffffffffffff168173ffffffffffffffffffffffffffffffffffffffff160361011d5760006040517f1e4fbdf7000000000000000000000000000000000000000000000000000000008152600401610114919061055b565b60405180910390fd5b61012c8161013260201b60201c565b50610576565b6000600b60009054906101000a900473ffffffffffffffffffffffffffffffffffffffff16905081600b60006101000a81548173ffffffffffffffffffffffffffffffffffffffff021916908373ffffffffffffffffffffffffffffffffffffffff1602179055508173ffffffffffffffffffffffffffffffffffffffff168173ffffffffffffffffffffffffffffffffffffffff167f8be0079c531659141344cd1fd0a4f28419497f9722a3daafe3b4186f6b6457e060405160405180910390a35050565b600081519050919050565b7f4e487b7100000000000000000000000000000000000000000000000000000000600052604160045260246000fd5b7f4e487b7100000000000000000000000000000000000000000000000000000000600052602260045260246000fd5b6000600282049050600182168061027957607f821691505b60208210810361028c5761028b610232565b5b50919050565b60008190508160005260206000209050919050565b60006020601f8301049050919050565b600082821b905092915050565b6000600883026102f47fffffffffffffffffffffffffffffffffffffffffffffffffffffffffffffffff826102b7565b6102fe86836102b7565b95508019841693508086168417925050509392505050565b6000819050919050565b6000819050919050565b600061034561034061033b84610316565b610320565b610316565b9050919050565b6000819050919050565b61035f8361032a565b61037361036b8261034c565b8484546102c4565b825550505050565b600090565b61038861037b565b610393818484610356565b505050565b5b818110156103b7576103ac600082610380565b600181019050610399565b5050565b601f8211156103fc576103cd81610292565b6103d6846102a7565b810160208510156103e5578190505b6103f96103f1856102a7565b830182610398565b50505b505050565b600082821c905092915050565b600061041f60001984600802610401565b1980831691505092915050565b6000610438838361040e565b9150826002028217905092915050565b610451826101f8565b67ffffffffffffffff81111561046a57610469610203565b5b6104748254610261565b61047f8282856103bb565b600060209050601f8311600181146104b257600084156104a0578287015190505b6104aa858261042c565b865550610512565b601f1984166104c086610292565b60005b828110156104e8578489015182556001820191506020850194506020810190506104c3565b868310156105055784890151610501601f89168261040e565b8355505b6001600288020188555050505b505050505050565b600073ffffffffffffffffffffffffffffffffffffffff82169050919050565b60006105458261051a565b9050919050565b6105558161053a565b82525050565b6000602082019050610570600083018461054c565b92915050565b613fd0806105856000396000f3fe6080604052600436106101355760003560e01c80636817c76c116100ab57806395d89b411161006f57806395d89b4114610458578063a22cb46514610483578063b88d4fde146104ac578063c87b56dd146104d5578063e985e9c514610512578063f2fde38b1461054f57610135565b80636817c76c1461036c57806370a0823114610397578063715018a6146103d4578063732077ca146103eb5780638da5cb5b1461042d57610135565b806323b872dd116100fd57806323b872dd1461023357806329c3c4521461025c5780632f745c591461028c57806342842e0e146102c95780634f6ccce7146102f25780636352211e1461032f57610135565b806301ffc9a71461013a57806306fdde0314610177578063081812fc146101a2578063095ea7b3146101df57806318160ddd14610208575b600080fd5b34801561014657600080fd5b50610161600480360381019061015c919061297f565b610578565b60405161016e91906129c7565b60405180910390f35b34801561018357600080fd5b5061018c6105aa565b6040516101999190612a72565b60405180910390f35b3480156101ae57600080fd5b506101c960048036038101906101c49190612aca565b61063c565b6040516101d69190612b38565b60405180910390f35b3480156101eb57600080fd5b5061020660048036038101906102019190612b7f565b610658565b005b34801561021457600080fd5b5061021d61066e565b60405161022a9190612bce565b60405180910390f35b34801561023f57600080fd5b5061025a60048036038101906102559190612be9565b61067b565b005b61027660048036038101906102719190612da7565b61077d565b6040516102839190612bce565b60405180910390f35b34801561029857600080fd5b506102b360048036038101906102ae9190612b7f565b6108ec565b6040516102c09190612bce565b60405180910390f35b3480156102d557600080fd5b506102f060048036038101906102eb9190612be9565b610995565b005b3480156102fe57600080fd5b5061031960048036038101906103149190612aca565b6109b5565b6040516103269190612bce565b60405180910390f35b34801561033b57600080fd5b5061035660048036038101906103519190612aca565b610a2b565b6040516103639190612b38565b60405180910390f35b34801561037857600080fd5b50610381610a3d565b60405161038e9190612bce565b60405180910390f35b3480156103a357600080fd5b506103be60048036038101906103b99190612e76565b610a43565b6040516103cb9190612bce565b60405180910390f35b3480156103e057600080fd5b506103e9610afd565b005b3480156103f757600080fd5b50610412600480360381019061040d9190612aca565b610b11565b60405161042496959493929190612eb2565b60405180910390f35b34801561043957600080fd5b50610442610d05565b60405161044f9190612b38565b60405180910390f35b34801561046457600080fd5b5061046d610d2f565b60405161047a9190612a72565b60405180910390f35b34801561048f57600080fd5b506104aa60048036038101906104a59190612f54565b610dc1565b005b3480156104b857600080fd5b506104d360048036038101906104ce9190613035565b610dd7565b005b3480156104e157600080fd5b506104fc60048036038101906104f79190612aca565b610dfc565b6040516105099190612a72565b60405180910390f35b34801561051e57600080fd5b50610539600480360381019061053491906130b8565b6110c3565b60405161054691906129c7565b60405180910390f35b34801561055b57600080fd5b5061057660048036038101906105719190612e76565b611157565b005b6000610583826111dd565b806105935750610592826112bf565b5b806105a357506105a282611339565b5b9050919050565b6060600080546105b990613127565b80601f01602080910402602001604051908101604052809291908181526020018280546105e590613127565b80156106325780601f1061060757610100808354040283529160200191610632565b820191906000526020600020905b81548152906001019060200180831161061557829003601f168201915b5050505050905090565b60006106478261139a565b5061065182611422565b9050919050565b61066a828261066561145f565b611467565b5050565b6000600980549050905090565b600073ffffffffffffffffffffffffffffffffffffffff168273ffffffffffffffffffffffffffffffffffffffff16036106ed5760006040517f64a0ae920000000000000000000000000000000000000000000000000000000081526004016106e49190612b38565b60405180910390fd5b600061070183836106fc61145f565b611479565b90508373ffffffffffffffffffffffffffffffffffffffff168173ffffffffffffffffffffffffffffffffffffffff1614610777578382826040517f64283d7b00000000000000000000000000000000000000000000000000000000815260040161076e93929190613158565b60405180910390fd5b50505050565b6000600d543410156107c4576040517f08c379a00000000000000000000000000000000000000000000000000000000081526004016107bb906131db565b60405180910390fd5b6000600c60008154809291906107d99061322a565b9190505590506107e9878261148f565b6040518060c001604052803373ffffffffffffffffffffffffffffffffffffffff16815260200187815260200186815260200185815260200142815260200184815250600e600083815260200190815260200160002060008201518160000160006101000a81548173ffffffffffffffffffffffffffffffffffffffff021916908373ffffffffffffffffffffffffffffffffffffffff160217905550602082015181600101908161089b919061341e565b5060408201518160020190816108b1919061341e565b50606082015181600301556080820151816004015560a08201518160050190816108db919061341e565b509050508091505095945050505050565b60006108f783610a43565b821061093c5782826040517fa57d13dc0000000000000000000000000000000000000000000000000000000081526004016109339291906134f0565b60405180910390fd5b600760008473ffffffffffffffffffffffffffffffffffffffff1673ffffffffffffffffffffffffffffffffffffffff168152602001908152602001600020600083815260200190815260200160002054905092915050565b6109b083838360405180602001604052806000815250610dd7565b505050565b60006109bf61066e565b8210610a05576000826040517fa57d13dc0000000000000000000000000000000000000000000000000000000081526004016109fc9291906134f0565b60405180910390fd5b60098281548110610a1957610a18613519565b5b90600052602060002001549050919050565b6000610a368261139a565b9050919050565b600d5481565b60008073ffffffffffffffffffffffffffffffffffffffff168273ffffffffffffffffffffffffffffffffffffffff1603610ab65760006040517f89c62b64000000000000000000000000000000000000000000000000000000008152600401610aad9190612b38565b60405180910390fd5b600360008373ffffffffffffffffffffffffffffffffffffffff1673ffffffffffffffffffffffffffffffffffffffff168152602001908152602001600020549050919050565b610b056114ad565b610b0f6000611534565b565b600e6020528060005260406000206000915090508060000160009054906101000a900473ffffffffffffffffffffffffffffffffffffffff1690806001018054610b5a90613127565b80601f0160208091040260200160405190810160405280929190818152602001828054610b8690613127565b8015610bd35780601f10610ba857610100808354040283529160200191610bd3565b820191906000526020600020905b815481529060010190602001808311610bb657829003601f168201915b505050505090806002018054610be890613127565b80601f0160208091040260200160405190810160405280929190818152602001828054610c1490613127565b8015610c615780601f10610c3657610100808354040283529160200191610c61565b820191906000526020600020905b815481529060010190602001808311610c4457829003601f168201915b505050505090806003015490806004015490806005018054610c8290613127565b80601f0160208091040260200160405190810160405280929190818152602001828054610cae90613127565b8015610cfb5780601f10610cd057610100808354040283529160200191610cfb565b820191906000526020600020905b815481529060010190602001808311610cde57829003601f168201915b5050505050905086565b6000600b60009054906101000a900473ffffffffffffffffffffffffffffffffffffffff16905090565b606060018054610d3e90613127565b80601f0160208091040260200160405190810160405280929190818152602001828054610d6a90613127565b8015610db75780601f10610d8c57610100808354040283529160200191610db7565b820191906000526020600020905b815481529060010190602001808311610d9a57829003601f168201915b5050505050905090565b610dd3610dcc61145f565b83836115fa565b5050565b610de284848461067b565b610df6610ded61145f565b85858585611769565b50505050565b60606000600e60008481526020019081526020016000206040518060c00160405290816000820160009054906101000a900473ffffffffffffffffffffffffffffffffffffffff1673ffffffffffffffffffffffffffffffffffffffff1673ffffffffffffffffffffffffffffffffffffffff168152602001600182018054610e8490613127565b80601f0160208091040260200160405190810160405280929190818152602001828054610eb090613127565b8015610efd5780601f10610ed257610100808354040283529160200191610efd565b820191906000526020600020905b815481529060010190602001808311610ee057829003601f168201915b50505050508152602001600282018054610f1690613127565b80601f0160208091040260200160405190810160405280929190818152602001828054610f4290613127565b8015610f8f5780601f10610f6457610100808354040283529160200191610f8f565b820191906000526020600020905b815481529060010190602001808311610f7257829003601f168201915b505050505081526020016003820154815260200160048201548152602001600582018054610fbc90613127565b80601f0160208091040260200160405190810160405280929190818152602001828054610fe890613127565b80156110355780601f1061100a57610100808354040283529160200191611035565b820191906000526020600020905b81548152906001019060200180831161101857829003601f168201915b5050505050815250509050600061109861104e8561191a565b61105b8460000151611a7a565b8460400151856020015186604001518760a0015160405160200161108496959493929190613960565b604051602081830303815290604052611c37565b9050806040516020016110ab9190613a88565b60405160208183030381529060405292505050919050565b6000600560008473ffffffffffffffffffffffffffffffffffffffff1673ffffffffffffffffffffffffffffffffffffffff16815260200190815260200160002060008373ffffffffffffffffffffffffffffffffffffffff1673ffffffffffffffffffffffffffffffffffffffff16815260200190815260200160002060009054906101000a900460ff16905092915050565b61115f6114ad565b600073ffffffffffffffffffffffffffffffffffffffff168173ffffffffffffffffffffffffffffffffffffffff16036111d15760006040517f1e4fbdf70000000000000000000000000000000000000000000000000000000081526004016111c89190612b38565b60405180910390fd5b6111da81611534565b50565b60007f80ac58cd000000000000000000000000000000000000000000000000000000007bffffffffffffffffffffffffffffffffffffffffffffffffffffffff1916827bffffffffffffffffffffffffffffffffffffffffffffffffffffffff191614806112a857507f5b5e139f000000000000000000000000000000000000000000000000000000007bffffffffffffffffffffffffffffffffffffffffffffffffffffffff1916827bffffffffffffffffffffffffffffffffffffffffffffffffffffffff1916145b806112b857506112b782611c64565b5b9050919050565b60007f780e9d63000000000000000000000000000000000000000000000000000000007bffffffffffffffffffffffffffffffffffffffffffffffffffffffff1916827bffffffffffffffffffffffffffffffffffffffffffffffffffffffff19161480611332575061133182611339565b5b9050919050565b6000634906490660e01b7bffffffffffffffffffffffffffffffffffffffffffffffffffffffff1916827bffffffffffffffffffffffffffffffffffffffffffffffffffffffff191614806113935750611392826111dd565b5b9050919050565b6000806113a683611cce565b9050600073ffffffffffffffffffffffffffffffffffffffff168173ffffffffffffffffffffffffffffffffffffffff160361141957826040517f7e2732890000000000000000000000000000000000000000000000000000000081526004016114109190612bce565b60405180910390fd5b80915050919050565b60006004600083815260200190815260200160002060009054906101000a900473ffffffffffffffffffffffffffffffffffffffff169050919050565b600033905090565b6114748383836001611d0b565b505050565b6000611486848484611ed0565b90509392505050565b6114a9828260405180602001604052806000815250611fed565b5050565b6114b561145f565b73ffffffffffffffffffffffffffffffffffffffff166114d3610d05565b73ffffffffffffffffffffffffffffffffffffffff1614611532576114f661145f565b6040517f118cdaa70000000000000000000000000000000000000000000000000000000081526004016115299190612b38565b60405180910390fd5b565b6000600b60009054906101000a900473ffffffffffffffffffffffffffffffffffffffff16905081600b60006101000a81548173ffffffffffffffffffffffffffffffffffffffff021916908373ffffffffffffffffffffffffffffffffffffffff1602179055508173ffffffffffffffffffffffffffffffffffffffff168173ffffffffffffffffffffffffffffffffffffffff167f8be0079c531659141344cd1fd0a4f28419497f9722a3daafe3b4186f6b6457e060405160405180910390a35050565b600073ffffffffffffffffffffffffffffffffffffffff168273ffffffffffffffffffffffffffffffffffffffff160361166b57816040517f5b08ba180000000000000000000000000000000000000000000000000000000081526004016116629190612b38565b60405180910390fd5b80600560008573ffffffffffffffffffffffffffffffffffffffff1673ffffffffffffffffffffffffffffffffffffffff16815260200190815260200160002060008473ffffffffffffffffffffffffffffffffffffffff1673ffffffffffffffffffffffffffffffffffffffff16815260200190815260200160002060006101000a81548160ff0219169083151502179055508173ffffffffffffffffffffffffffffffffffffffff168373ffffffffffffffffffffffffffffffffffffffff167f17307eab39ab6107e8899845ad3d59bd9653f200f220920489ca2b5937696c318360405161175c91906129c7565b60405180910390a3505050565b60008373ffffffffffffffffffffffffffffffffffffffff163b1115611913578273ffffffffffffffffffffffffffffffffffffffff1663150b7a02868685856040518563ffffffff1660e01b81526004016117c89493929190613aff565b6020604051808303816000875af192505050801561180457506040513d601f19601f820116820180604052508101906118019190613b60565b60015b611888573d8060008114611834576040519150601f19603f3d011682016040523d82523d6000602084013e611839565b606091505b50600081510361188057836040517f64a0ae920000000000000000000000000000000000000000000000000000000081526004016118779190612b38565b60405180910390fd5b805181602001fd5b63150b7a0260e01b7bffffffffffffffffffffffffffffffffffffffffffffffffffffffff1916817bffffffffffffffffffffffffffffffffffffffffffffffffffffffff19161461191157836040517f64a0ae920000000000000000000000000000000000000000000000000000000081526004016119089190612b38565b60405180910390fd5b505b5050505050565b606060008203611961576040518060400160405280600181526020017f30000000000000000000000000000000000000000000000000000000000000008152509050611a75565b600082905060005b6000821461199357808061197c9061322a565b915050600a8261198c9190613bbc565b9150611969565b60008167ffffffffffffffff8111156119af576119ae612c46565b5b6040519080825280601f01601f1916602001820160405280156119e15781602001600182028036833780820191505090505b5090505b60008514611a6e576001826119fa9190613bed565b9150600a85611a099190613c21565b6030611a159190613c52565b60f81b818381518110611a2b57611a2a613519565b5b60200101907effffffffffffffffffffffffffffffffffffffffffffffffffffffffffffff1916908160001a905350600a85611a679190613bbc565b94506119e5565b8093505050505b919050565b60606000602867ffffffffffffffff811115611a9957611a98612c46565b5b6040519080825280601f01601f191660200182016040528015611acb5781602001600182028036833780820191505090505b50905060005b6014811015611c2d576000816013611ae99190613bed565b6008611af59190613c86565b6002611b019190613dfb565b8573ffffffffffffffffffffffffffffffffffffffff16611b229190613bbc565b60f81b9050600060108260f81c611b399190613e53565b60f81b905060008160f81c6010611b509190613e84565b8360f81c611b5e9190613ec1565b60f81b9050611b6c82612011565b85856002611b7a9190613c86565b81518110611b8b57611b8a613519565b5b60200101907effffffffffffffffffffffffffffffffffffffffffffffffffffffffffffff1916908160001a905350611bc381612011565b856001866002611bd39190613c86565b611bdd9190613c52565b81518110611bee57611bed613519565b5b60200101907effffffffffffffffffffffffffffffffffffffffffffffffffffffffffffff1916908160001a9053505050508080600101915050611ad1565b5080915050919050565b6060611c5d82604051806060016040528060408152602001613f5b604091396001612057565b9050919050565b60007f01ffc9a7000000000000000000000000000000000000000000000000000000007bffffffffffffffffffffffffffffffffffffffffffffffffffffffff1916827bffffffffffffffffffffffffffffffffffffffffffffffffffffffff1916149050919050565b60006002600083815260200190815260200160002060009054906101000a900473ffffffffffffffffffffffffffffffffffffffff169050919050565b8080611d445750600073ffffffffffffffffffffffffffffffffffffffff168273ffffffffffffffffffffffffffffffffffffffff1614155b15611e78576000611d548461139a565b9050600073ffffffffffffffffffffffffffffffffffffffff168373ffffffffffffffffffffffffffffffffffffffff1614158015611dbf57508273ffffffffffffffffffffffffffffffffffffffff168173ffffffffffffffffffffffffffffffffffffffff1614155b8015611dd25750611dd081846110c3565b155b15611e1457826040517fa9fbf51f000000000000000000000000000000000000000000000000000000008152600401611e0b9190612b38565b60405180910390fd5b8115611e7657838573ffffffffffffffffffffffffffffffffffffffff168273ffffffffffffffffffffffffffffffffffffffff167f8c5be1e5ebec7d5bd14f71427d1e84f3dd0314c0f7b2291e5b200ac8c7c3b92560405160405180910390a45b505b836004600085815260200190815260200160002060006101000a81548173ffffffffffffffffffffffffffffffffffffffff021916908373ffffffffffffffffffffffffffffffffffffffff16021790555050505050565b600080611ede8585856121eb565b9050600073ffffffffffffffffffffffffffffffffffffffff168173ffffffffffffffffffffffffffffffffffffffff1603611f2257611f1d84612405565b611f61565b8473ffffffffffffffffffffffffffffffffffffffff168173ffffffffffffffffffffffffffffffffffffffff1614611f6057611f5f818561244e565b5b5b600073ffffffffffffffffffffffffffffffffffffffff168573ffffffffffffffffffffffffffffffffffffffff1603611fa357611f9e84612539565b611fe2565b8473ffffffffffffffffffffffffffffffffffffffff168173ffffffffffffffffffffffffffffffffffffffff1614611fe157611fe0858561260a565b5b5b809150509392505050565b611ff78383612695565b61200c61200261145f565b6000858585611769565b505050565b6000600a8260f81c60ff16101561203c5760308260f81c6120329190613ef6565b60f81b9050612052565b60578260f81c61204c9190613ef6565b60f81b90505b919050565b60606000845103612079576040518060200160405280600081525090506121e4565b6000826120ab5760036002865160046120929190613c86565b61209c9190613c52565b6120a69190613bbc565b6120d2565b6003600286516120bb9190613c52565b6120c59190613bbc565b60046120d19190613c86565b5b905060008167ffffffffffffffff8111156120f0576120ef612c46565b5b6040519080825280601f01601f1916602001820160405280156121225781602001600182028036833780820191505090505b50905060018501602082018788518901602081018051600082525b82841015612198576003840193508351603f8160121c168701518653600186019550603f81600c1c168701518653600186019550603f8160061c168701518653600186019550603f811687015186536001860195505061213d565b80825289156121d85760038c5106600181146121bb57600281146121ce576121d6565b603d6001870353603d60028703536121d6565b603d60018703535b505b50505050505080925050505b9392505050565b6000806121f784611cce565b9050600073ffffffffffffffffffffffffffffffffffffffff168373ffffffffffffffffffffffffffffffffffffffff16146122395761223881848661278e565b5b600073ffffffffffffffffffffffffffffffffffffffff168173ffffffffffffffffffffffffffffffffffffffff16146122ca5761227b600085600080611d0b565b6001600360008373ffffffffffffffffffffffffffffffffffffffff1673ffffffffffffffffffffffffffffffffffffffff168152602001908152602001600020600082825403925050819055505b600073ffffffffffffffffffffffffffffffffffffffff168573ffffffffffffffffffffffffffffffffffffffff161461234d576001600360008773ffffffffffffffffffffffffffffffffffffffff1673ffffffffffffffffffffffffffffffffffffffff168152602001908152602001600020600082825401925050819055505b846002600086815260200190815260200160002060006101000a81548173ffffffffffffffffffffffffffffffffffffffff021916908373ffffffffffffffffffffffffffffffffffffffff160217905550838573ffffffffffffffffffffffffffffffffffffffff168273ffffffffffffffffffffffffffffffffffffffff167fddf252ad1be2c89b69c2b068fc378daa952ba7f163c4a11628f55a4df523b3ef60405160405180910390a4809150509392505050565b600980549050600a600083815260200190815260200160002081905550600981908060018154018082558091505060019003906000526020600020016000909190919091505550565b600061245983610a43565b90506000600860008481526020019081526020016000205490506000600760008673ffffffffffffffffffffffffffffffffffffffff1673ffffffffffffffffffffffffffffffffffffffff16815260200190815260200160002090508282146125055760008160008581526020019081526020016000205490508082600085815260200190815260200160002081905550826008600083815260200190815260200160002081905550505b6008600085815260200190815260200160002060009055806000848152602001908152602001600020600090555050505050565b6000600160098054905061254d9190613bed565b90506000600a600084815260200190815260200160002054905060006009838154811061257d5761257c613519565b5b90600052602060002001549050806009838154811061259f5761259e613519565b5b906000526020600020018190555081600a600083815260200190815260200160002081905550600a60008581526020019081526020016000206000905560098054806125ee576125ed613f2b565b5b6001900381819060005260206000200160009055905550505050565b6000600161261784610a43565b6126219190613bed565b905081600760008573ffffffffffffffffffffffffffffffffffffffff1673ffffffffffffffffffffffffffffffffffffffff168152602001908152602001600020600083815260200190815260200160002081905550806008600084815260200190815260200160002081905550505050565b600073ffffffffffffffffffffffffffffffffffffffff168273ffffffffffffffffffffffffffffffffffffffff16036127075760006040517f64a0ae920000000000000000000000000000000000000000000000000000000081526004016126fe9190612b38565b60405180910390fd5b600061271583836000611479565b9050600073ffffffffffffffffffffffffffffffffffffffff168173ffffffffffffffffffffffffffffffffffffffff16146127895760006040517f73c6ac6e0000000000000000000000000000000000000000000000000000000081526004016127809190612b38565b60405180910390fd5b505050565b612799838383612852565b61284d57600073ffffffffffffffffffffffffffffffffffffffff168373ffffffffffffffffffffffffffffffffffffffff160361280e57806040517f7e2732890000000000000000000000000000000000000000000000000000000081526004016128059190612bce565b60405180910390fd5b81816040517f177e802f0000000000000000000000000000000000000000000000000000000081526004016128449291906134f0565b60405180910390fd5b505050565b60008073ffffffffffffffffffffffffffffffffffffffff168373ffffffffffffffffffffffffffffffffffffffff161415801561290a57508273ffffffffffffffffffffffffffffffffffffffff168473ffffffffffffffffffffffffffffffffffffffff1614806128cb57506128ca84846110c3565b5b8061290957508273ffffffffffffffffffffffffffffffffffffffff166128f183611422565b73ffffffffffffffffffffffffffffffffffffffff16145b5b90509392505050565b6000604051905090565b600080fd5b600080fd5b60007fffffffff0000000000000000000000000000000000000000000000000000000082169050919050565b61295c81612927565b811461296757600080fd5b50565b60008135905061297981612953565b92915050565b6000602082840312156129955761299461291d565b5b60006129a38482850161296a565b91505092915050565b60008115159050919050565b6129c1816129ac565b82525050565b60006020820190506129dc60008301846129b8565b92915050565b600081519050919050565b600082825260208201905092915050565b60005b83811015612a1c578082015181840152602081019050612a01565b60008484015250505050565b6000601f19601f8301169050919050565b6000612a44826129e2565b612a4e81856129ed565b9350612a5e8185602086016129fe565b612a6781612a28565b840191505092915050565b60006020820190508181036000830152612a8c8184612a39565b905092915050565b6000819050919050565b612aa781612a94565b8114612ab257600080fd5b50565b600081359050612ac481612a9e565b92915050565b600060208284031215612ae057612adf61291d565b5b6000612aee84828501612ab5565b91505092915050565b600073ffffffffffffffffffffffffffffffffffffffff82169050919050565b6000612b2282612af7565b9050919050565b612b3281612b17565b82525050565b6000602082019050612b4d6000830184612b29565b92915050565b612b5c81612b17565b8114612b6757600080fd5b50565b600081359050612b7981612b53565b92915050565b60008060408385031215612b9657612b9561291d565b5b6000612ba485828601612b6a565b9250506020612bb585828601612ab5565b9150509250929050565b612bc881612a94565b82525050565b6000602082019050612be36000830184612bbf565b92915050565b600080600060608486031215612c0257612c0161291d565b5b6000612c1086828701612b6a565b9350506020612c2186828701612b6a565b9250506040612c3286828701612ab5565b9150509250925092565b600080fd5b600080fd5b7f4e487b7100000000000000000000000000000000000000000000000000000000600052604160045260246000fd5b612c7e82612a28565b810181811067ffffffffffffffff82111715612c9d57612c9c612c46565b5b80604052505050565b6000612cb0612913565b9050612cbc8282612c75565b919050565b600067ffffffffffffffff821115612cdc57612cdb612c46565b5b612ce582612a28565b9050602081019050919050565b82818337600083830152505050565b6000612d14612d0f84612cc1565b612ca6565b905082815260208101848484011115612d3057612d2f612c41565b5b612d3b848285612cf2565b509392505050565b600082601f830112612d5857612d57612c3c565b5b8135612d68848260208601612d01565b91505092915050565b6000819050919050565b612d8481612d71565b8114612d8f57600080fd5b50565b600081359050612da181612d7b565b92915050565b600080600080600060a08688031215612dc357612dc261291d565b5b6000612dd188828901612b6a565b955050602086013567ffffffffffffffff811115612df257612df1612922565b5b612dfe88828901612d43565b945050604086013567ffffffffffffffff811115612e1f57612e1e612922565b5b612e2b88828901612d43565b9350506060612e3c88828901612d92565b925050608086013567ffffffffffffffff811115612e5d57612e5c612922565b5b612e6988828901612d43565b9150509295509295909350565b600060208284031215612e8c57612e8b61291d565b5b6000612e9a84828501612b6a565b91505092915050565b612eac81612d71565b82525050565b600060c082019050612ec76000830189612b29565b8181036020830152612ed98188612a39565b90508181036040830152612eed8187612a39565b9050612efc6060830186612ea3565b612f096080830185612bbf565b81810360a0830152612f1b8184612a39565b9050979650505050505050565b612f31816129ac565b8114612f3c57600080fd5b50565b600081359050612f4e81612f28565b92915050565b60008060408385031215612f6b57612f6a61291d565b5b6000612f7985828601612b6a565b9250506020612f8a85828601612f3f565b9150509250929050565b600067ffffffffffffffff821115612faf57612fae612c46565b5b612fb882612a28565b9050602081019050919050565b6000612fd8612fd384612f94565b612ca6565b905082815260208101848484011115612ff457612ff3612c41565b5b612fff848285612cf2565b509392505050565b600082601f83011261301c5761301b612c3c565b5b813561302c848260208601612fc5565b91505092915050565b6000806000806080858703121561304f5761304e61291d565b5b600061305d87828801612b6a565b945050602061306e87828801612b6a565b935050604061307f87828801612ab5565b925050606085013567ffffffffffffffff8111156130a05761309f612922565b5b6130ac87828801613007565b91505092959194509250565b600080604083850312156130cf576130ce61291d565b5b60006130dd85828601612b6a565b92505060206130ee85828601612b6a565b9150509250929050565b7f4e487b7100000000000000000000000000000000000000000000000000000000600052602260045260246000fd5b6000600282049050600182168061313f57607f821691505b602082108103613152576131516130f8565b5b50919050565b600060608201905061316d6000830186612b29565b61317a6020830185612bbf565b6131876040830184612b29565b949350505050565b7f496e73756666696369656e742045746865722073656e74000000000000000000600082015250565b60006131c56017836129ed565b91506131d08261318f565b602082019050919050565b600060208201905081810360008301526131f4816131b8565b9050919050565b7f4e487b7100000000000000000000000000000000000000000000000000000000600052601160045260246000fd5b600061323582612a94565b91507fffffffffffffffffffffffffffffffffffffffffffffffffffffffffffffffff8203613267576132666131fb565b5b600182019050919050565b60008190508160005260206000209050919050565b60006020601f8301049050919050565b600082821b905092915050565b6000600883026132d47fffffffffffffffffffffffffffffffffffffffffffffffffffffffffffffffff82613297565b6132de8683613297565b95508019841693508086168417925050509392505050565b6000819050919050565b600061331b61331661331184612a94565b6132f6565b612a94565b9050919050565b6000819050919050565b61333583613300565b61334961334182613322565b8484546132a4565b825550505050565b600090565b61335e613351565b61336981848461332c565b505050565b5b8181101561338d57613382600082613356565b60018101905061336f565b5050565b601f8211156133d2576133a381613272565b6133ac84613287565b810160208510156133bb578190505b6133cf6133c785613287565b83018261336e565b50505b505050565b600082821c905092915050565b60006133f5600019846008026133d7565b1980831691505092915050565b600061340e83836133e4565b9150826002028217905092915050565b613427826129e2565b67ffffffffffffffff8111156134405761343f612c46565b5b61344a8254613127565b613455828285613391565b600060209050601f8311600181146134885760008415613476578287015190505b6134808582613402565b8655506134e8565b601f19841661349686613272565b60005b828110156134be57848901518255600182019150602085019450602081019050613499565b868310156134db57848901516134d7601f8916826133e4565b8355505b6001600288020188555050505b505050505050565b60006040820190506135056000830185612b29565b6135126020830184612bbf565b9392505050565b7f4e487b7100000000000000000000000000000000000000000000000000000000600052603260045260246000fd5b600081905092915050565b7f7b226e616d65223a224149204172742023000000000000000000000000000000600082015250565b6000613589601183613548565b915061359482613553565b601182019050919050565b60006135aa826129e2565b6135b48185613548565b93506135c48185602086016129fe565b80840191505092915050565b7f222c202261747472696275746573223a205b0000000000000000000000000000600082015250565b6000613606601283613548565b9150613611826135d0565b601282019050919050565b7f7b2274726169745f74797065223a202243726561746f72222c202276616c756560008201527f223a202200000000000000000000000000000000000000000000000000000000602082015250565b6000613678602483613548565b91506136838261361c565b602482019050919050565b7f227d2c0000000000000000000000000000000000000000000000000000000000600082015250565b60006136c4600383613548565b91506136cf8261368e565b600382019050919050565b7f7b2274726169745f74797065223a20224d6f64656c222c202276616c7565223a60008201527f2022000000000000000000000000000000000000000000000000000000000000602082015250565b6000613736602283613548565b9150613741826136da565b602282019050919050565b7f7b2274726169745f74797065223a202250726f6d7074222c202276616c75652260008201527f3a20220000000000000000000000000000000000000000000000000000000000602082015250565b60006137a8602383613548565b91506137b38261374c565b602382019050919050565b7f227d5d2c20000000000000000000000000000000000000000000000000000000600082015250565b60006137f4600583613548565b91506137ff826137be565b600582019050919050565b7f226465736372697074696f6e223a202241492d67656e6572617465642061727460008201527f776f726b2063726561746564207573696e672000000000000000000000000000602082015250565b6000613866603383613548565b91506138718261380a565b603382019050919050565b7f222c200000000000000000000000000000000000000000000000000000000000600082015250565b60006138b2600383613548565b91506138bd8261387c565b600382019050919050565b7f22696d616765223a202268747470733a2f2f697066732e696f2f697066732f00600082015250565b60006138fe601f83613548565b9150613909826138c8565b601f82019050919050565b7f227d000000000000000000000000000000000000000000000000000000000000600082015250565b600061394a600283613548565b915061395582613914565b600282019050919050565b600061396b8261357c565b9150613977828961359f565b9150613982826135f9565b915061398d8261366b565b9150613999828861359f565b91506139a4826136b7565b91506139af82613729565b91506139bb828761359f565b91506139c6826136b7565b91506139d18261379b565b91506139dd828661359f565b91506139e8826137e7565b91506139f382613859565b91506139ff828561359f565b9150613a0a826138a5565b9150613a15826138f1565b9150613a21828461359f565b9150613a2c8261393d565b9150819050979650505050505050565b7f646174613a6170706c69636174696f6e2f6a736f6e3b6261736536342c000000600082015250565b6000613a72601d83613548565b9150613a7d82613a3c565b601d82019050919050565b6000613a9382613a65565b9150613a9f828461359f565b915081905092915050565b600081519050919050565b600082825260208201905092915050565b6000613ad182613aaa565b613adb8185613ab5565b9350613aeb8185602086016129fe565b613af481612a28565b840191505092915050565b6000608082019050613b146000830187612b29565b613b216020830186612b29565b613b2e6040830185612bbf565b8181036060830152613b408184613ac6565b905095945050505050565b600081519050613b5a81612953565b92915050565b600060208284031215613b7657613b7561291d565b5b6000613b8484828501613b4b565b91505092915050565b7f4e487b7100000000000000000000000000000000000000000000000000000000600052601260045260246000fd5b6000613bc782612a94565b9150613bd283612a94565b925082613be257613be1613b8d565b5b828204905092915050565b6000613bf882612a94565b9150613c0383612a94565b9250828203905081811115613c1b57613c1a6131fb565b5b92915050565b6000613c2c82612a94565b9150613c3783612a94565b925082613c4757613c46613b8d565b5b828206905092915050565b6000613c5d82612a94565b9150613c6883612a94565b9250828201905080821115613c8057613c7f6131fb565b5b92915050565b6000613c9182612a94565b9150613c9c83612a94565b9250828202613caa81612a94565b91508282048414831517613cc157613cc06131fb565b5b5092915050565b60008160011c9050919050565b6000808291508390505b6001851115613d1f57808604811115613cfb57613cfa6131fb565b5b6001851615613d0a5780820291505b8081029050613d1885613cc8565b9450613cdf565b94509492505050565b600082613d385760019050613df4565b81613d465760009050613df4565b8160018114613d5c5760028114613d6657613d95565b6001915050613df4565b60ff841115613d7857613d776131fb565b5b8360020a915084821115613d8f57613d8e6131fb565b5b50613df4565b5060208310610133831016604e8410600b8410161715613dca5782820a905083811115613dc557613dc46131fb565b5b613df4565b613dd78484846001613cd5565b92509050818404811115613dee57613ded6131fb565b5b81810290505b9392505050565b6000613e0682612a94565b9150613e1183612a94565b9250613e3e7fffffffffffffffffffffffffffffffffffffffffffffffffffffffffffffffff8484613d28565b905092915050565b600060ff82169050919050565b6000613e5e82613e46565b9150613e6983613e46565b925082613e7957613e78613b8d565b5b828204905092915050565b6000613e8f82613e46565b9150613e9a83613e46565b9250828202613ea881613e46565b9150808214613eba57613eb96131fb565b5b5092915050565b6000613ecc82613e46565b9150613ed783613e46565b9250828203905060ff811115613ef057613eef6131fb565b5b92915050565b6000613f0182613e46565b9150613f0c83613e46565b9250828201905060ff811115613f2557613f246131fb565b5b92915050565b7f4e487b7100000000000000000000000000000000000000000000000000000000600052603160045260246000fdfe4142434445464748494a4b4c4d4e4f505152535455565758595a6162636465666768696a6b6c6d6e6f707172737475767778797a303132333435363738392b2fa2646970667358221220c55a2300dc72eadf2e6f2cca690025ca7dba7db3dd5031b155d3fb5c0f66a6f964736f6c634300081c0033",
  "linkReferences": {},
  "deployedLinkReferences": {}
}