{
  "_format": "hh-sol-artifact-1",
  "contractName": "TEST_AI_CATS",
  "sourceName": "src/contracts/TEST_AI_CATS.sol",
  "abi": [
    {
      "inputs": [
        {
          "internalType": "address",
          "name": "initialOwner",
          "type": "address"
        }
      ],
      "stateMutability": "nonpayable",
      "type": "constructor"
    },
    {
      "inputs": [
        {
          "internalType": "address",
          "name": "sender",
          "type": "address"
        },
        {
          "internalType": "uint256",
          "name": "tokenId",
          "type": "uint256"
        },
        {
          "internalType": "address",
          "name": "owner",
          "type": "address"
        }
      ],
      "name": "ERC721IncorrectOwner",
      "type": "error"
    },
    {
      "inputs": [
        {
          "internalType": "address",
          "name": "operator",
          "type": "address"
        },
        {
          "internalType": "uint256",
          "name": "tokenId",
          "type": "uint256"
        }
      ],
      "name": "ERC721InsufficientApproval",
      "type": "error"
    },
    {
      "inputs": [
        {
          "internalType": "address",
          "name": "approver",
          "type": "address"
        }
      ],
      "name": "ERC721InvalidApprover",
      "type": "error"
    },
    {
      "inputs": [
        {
          "internalType": "address",
          "name": "operator",
          "type": "address"
        }
      ],
      "name": "ERC721InvalidOperator",
      "type": "error"
    },
    {
      "inputs": [
        {
          "internalType": "address",
          "name": "owner",
          "type": "address"
        }
      ],
      "name": "ERC721InvalidOwner",
      "type": "error"
    },
    {
      "inputs": [
        {
          "internalType": "address",
          "name": "receiver",
          "type": "address"
        }
      ],
      "name": "ERC721InvalidReceiver",
      "type": "error"
    },
    {
      "inputs": [
        {
          "internalType": "address",
          "name": "sender",
          "type": "address"
        }
      ],
      "name": "ERC721InvalidSender",
      "type": "error"
    },
    {
      "inputs": [
        {
          "internalType": "uint256",
          "name": "tokenId",
          "type": "uint256"
        }
      ],
      "name": "ERC721NonexistentToken",
      "type": "error"
    },
    {
      "inputs": [
        {
          "internalType": "address",
          "name": "owner",
          "type": "address"
        }
      ],
      "name": "OwnableInvalidOwner",
      "type": "error"
    },
    {
      "inputs": [
        {
          "internalType": "address",
          "name": "account",
          "type": "address"
        }
      ],
      "name": "OwnableUnauthorizedAccount",
      "type": "error"
    },
    {
      "anonymous": false,
      "inputs": [
        {
          "indexed": true,
          "internalType": "address",
          "name": "owner",
          "type": "address"
        },
        {
          "indexed": true,
          "internalType": "address",
          "name": "approved",
          "type": "address"
        },
        {
          "indexed": true,
          "internalType": "uint256",
          "name": "tokenId",
          "type": "uint256"
        }
      ],
      "name": "Approval",
      "type": "event"
    },
    {
      "anonymous": false,
      "inputs": [
        {
          "indexed": true,
          "internalType": "address",
          "name": "owner",
          "type": "address"
        },
        {
          "indexed": true,
          "internalType": "address",
          "name": "operator",
          "type": "address"
        },
        {
          "indexed": false,
          "internalType": "bool",
          "name": "approved",
          "type": "bool"
        }
      ],
      "name": "ApprovalForAll",
      "type": "event"
    },
    {
      "anonymous": false,
      "inputs": [
        {
          "indexed": false,
          "internalType": "uint256",
          "name": "_fromTokenId",
          "type": "uint256"
        },
        {
          "indexed": false,
          "internalType": "uint256",
          "name": "_toTokenId",
          "type": "uint256"
        }
      ],
      "name": "BatchMetadataUpdate",
      "type": "event"
    },
    {
      "anonymous": false,
      "inputs": [
        {
          "indexed": false,
          "internalType": "uint256",
          "name": "_tokenId",
          "type": "uint256"
        }
      ],
      "name": "MetadataUpdate",
      "type": "event"
    },
    {
      "anonymous": false,
      "inputs": [
        {
          "indexed": true,
          "internalType": "address",
          "name": "previousOwner",
          "type": "address"
        },
        {
          "indexed": true,
          "internalType": "address",
          "name": "newOwner",
          "type": "address"
        }
      ],
      "name": "OwnershipTransferred",
      "type": "event"
    },
    {
      "anonymous": false,
      "inputs": [
        {
          "indexed": true,
          "internalType": "address",
          "name": "from",
          "type": "address"
        },
        {
          "indexed": true,
          "internalType": "address",
          "name": "to",
          "type": "address"
        },
        {
          "indexed": true,
          "internalType": "uint256",
          "name": "tokenId",
          "type": "uint256"
        }
      ],
      "name": "Transfer",
      "type": "event"
    },
    {
      "inputs": [
        {
          "internalType": "address",
          "name": "to",
          "type": "address"
        },
        {
          "internalType": "uint256",
          "name": "tokenId",
          "type": "uint256"
        }
      ],
      "name": "approve",
      "outputs": [],
      "stateMutability": "nonpayable",
      "type": "function"
    },
    {
      "inputs": [
        {
          "internalType": "address",
          "name": "owner",
          "type": "address"
        }
      ],
      "name": "balanceOf",
      "outputs": [
        {
          "internalType": "uint256",
          "name": "",
          "type": "uint256"
        }
      ],
      "stateMutability": "view",
      "type": "function"
    },
    {
      "inputs": [
        {
          "internalType": "uint256",
          "name": "tokenId",
          "type": "uint256"
        }
      ],
      "name": "getApproved",
      "outputs": [
        {
          "internalType": "address",
          "name": "",
          "type": "address"
        }
      ],
      "stateMutability": "view",
      "type": "function"
    },
    {
      "inputs": [
        {
          "internalType": "address",
          "name": "owner",
          "type": "address"
        },
        {
          "internalType": "address",
          "name": "operator",
          "type": "address"
        }
      ],
      "name": "isApprovedForAll",
      "outputs": [
        {
          "internalType": "bool",
          "name": "",
          "type": "bool"
        }
      ],
      "stateMutability": "view",
      "type": "function"
    },
    {
      "inputs": [],
      "name": "name",
      "outputs": [
        {
          "internalType": "string",
          "name": "",
          "type": "string"
        }
      ],
      "stateMutability": "view",
      "type": "function"
    },
    {
      "inputs": [],
      "name": "owner",
      "outputs": [
        {
          "internalType": "address",
          "name": "",
          "type": "address"
        }
      ],
      "stateMutability": "view",
      "type": "function"
    },
    {
      "inputs": [
        {
          "internalType": "uint256",
          "name": "tokenId",
          "type": "uint256"
        }
      ],
      "name": "ownerOf",
      "outputs": [
        {
          "internalType": "address",
          "name": "",
          "type": "address"
        }
      ],
      "stateMutability": "view",
      "type": "function"
    },
    {
      "inputs": [],
      "name": "renounceOwnership",
      "outputs": [],
      "stateMutability": "nonpayable",
      "type": "function"
    },
    {
      "inputs": [
        {
          "internalType": "address",
          "name": "to",
          "type": "address"
        },
        {
          "internalType": "string",
          "name": "uri",
          "type": "string"
        }
      ],
      "name": "safeMint",
      "outputs": [],
      "stateMutability": "nonpayable",
      "type": "function"
    },
    {
      "inputs": [
        {
          "internalType": "address",
          "name": "from",
          "type": "address"
        },
        {
          "internalType": "address",
          "name": "to",
          "type": "address"
        },
        {
          "internalType": "uint256",
          "name": "tokenId",
          "type": "uint256"
        }
      ],
      "name": "safeTransferFrom",
      "outputs": [],
      "stateMutability": "nonpayable",
      "type": "function"
    },
    {
      "inputs": [
        {
          "internalType": "address",
          "name": "from",
          "type": "address"
        },
        {
          "internalType": "address",
          "name": "to",
          "type": "address"
        },
        {
          "internalType": "uint256",
          "name": "tokenId",
          "type": "uint256"
        },
        {
          "internalType": "bytes",
          "name": "data",
          "type": "bytes"
        }
      ],
      "name": "safeTransferFrom",
      "outputs": [],
      "stateMutability": "nonpayable",
      "type": "function"
    },
    {
      "inputs": [
        {
          "internalType": "address",
          "name": "operator",
          "type": "address"
        },
        {
          "internalType": "bool",
          "name": "approved",
          "type": "bool"
        }
      ],
      "name": "setApprovalForAll",
      "outputs": [],
      "stateMutability": "nonpayable",
      "type": "function"
    },
    {
      "inputs": [
        {
          "internalType": "bytes4",
          "name": "interfaceId",
          "type": "bytes4"
        }
      ],
      "name": "supportsInterface",
      "outputs": [
        {
          "internalType": "bool",
          "name": "",
          "type": "bool"
        }
      ],
      "stateMutability": "view",
      "type": "function"
    },
    {
      "inputs": [],
      "name": "symbol",
      "outputs": [
        {
          "internalType": "string",
          "name": "",
          "type": "string"
        }
      ],
      "stateMutability": "view",
      "type": "function"
    },
    {
      "inputs": [
        {
          "internalType": "uint256",
          "name": "tokenId",
          "type": "uint256"
        }
      ],
      "name": "tokenURI",
      "outputs": [
        {
          "internalType": "string",
          "name": "",
          "type": "string"
        }
      ],
      "stateMutability": "view",
      "type": "function"
    },
    {
      "inputs": [
        {
          "internalType": "address",
          "name": "from",
          "type": "address"
        },
        {
          "internalType": "address",
          "name": "to",
          "type": "address"
        },
        {
          "internalType": "uint256",
          "name": "tokenId",
          "type": "uint256"
        }
      ],
      "name": "transferFrom",
      "outputs": [],
      "stateMutability": "nonpayable",
      "type": "function"
    },
    {
      "inputs": [
        {
          "internalType": "address",
          "name": "newOwner",
          "type": "address"
        }
      ],
      "name": "transferOwnership",
      "outputs": [],
      "stateMutability": "nonpayable",
      "type": "function"
    }
  ],
  "bytecode": "0x608060405234801561001057600080fd5b50604051612c82380380612c8283398181016040528101906100329190610272565b806040518060400160405280600c81526020017f544553545f41495f4341545300000000000000000000000000000000000000008152506040518060400160405280600381526020017f434154000000000000000000000000000000000000000000000000000000000081525081600090816100ae91906104ef565b5080600190816100be91906104ef565b505050600073ffffffffffffffffffffffffffffffffffffffff168173ffffffffffffffffffffffffffffffffffffffff16036101335760006040517f1e4fbdf700000000000000000000000000000000000000000000000000000000815260040161012a91906105d0565b60405180910390fd5b6101428161014960201b60201c565b50506105eb565b6000600760009054906101000a900473ffffffffffffffffffffffffffffffffffffffff16905081600760006101000a81548173ffffffffffffffffffffffffffffffffffffffff021916908373ffffffffffffffffffffffffffffffffffffffff1602179055508173ffffffffffffffffffffffffffffffffffffffff168173ffffffffffffffffffffffffffffffffffffffff167f8be0079c531659141344cd1fd0a4f28419497f9722a3daafe3b4186f6b6457e060405160405180910390a35050565b600080fd5b600073ffffffffffffffffffffffffffffffffffffffff82169050919050565b600061023f82610214565b9050919050565b61024f81610234565b811461025a57600080fd5b50565b60008151905061026c81610246565b92915050565b6000602082840312156102885761028761020f565b5b60006102968482850161025d565b91505092915050565b600081519050919050565b7f4e487b7100000000000000000000000000000000000000000000000000000000600052604160045260246000fd5b7f4e487b7100000000000000000000000000000000000000000000000000000000600052602260045260246000fd5b6000600282049050600182168061032057607f821691505b602082108103610333576103326102d9565b5b50919050565b60008190508160005260206000209050919050565b60006020601f8301049050919050565b600082821b905092915050565b60006008830261039b7fffffffffffffffffffffffffffffffffffffffffffffffffffffffffffffffff8261035e565b6103a5868361035e565b95508019841693508086168417925050509392505050565b6000819050919050565b6000819050919050565b60006103ec6103e76103e2846103bd565b6103c7565b6103bd565b9050919050565b6000819050919050565b610406836103d1565b61041a610412826103f3565b84845461036b565b825550505050565b600090565b61042f610422565b61043a8184846103fd565b505050565b5b8181101561045e57610453600082610427565b600181019050610440565b5050565b601f8211156104a35761047481610339565b61047d8461034e565b8101602085101561048c578190505b6104a06104988561034e565b83018261043f565b50505b505050565b600082821c905092915050565b60006104c6600019846008026104a8565b1980831691505092915050565b60006104df83836104b5565b9150826002028217905092915050565b6104f88261029f565b67ffffffffffffffff811115610511576105106102aa565b5b61051b8254610308565b610526828285610462565b600060209050601f8311600181146105595760008415610547578287015190505b61055185826104d3565b8655506105b9565b601f19841661056786610339565b60005b8281101561058f5784890151825560018201915060208501945060208101905061056a565b868310156105ac57848901516105a8601f8916826104b5565b8355505b6001600288020188555050505b505050505050565b6105ca81610234565b82525050565b60006020820190506105e560008301846105c1565b92915050565b612688806105fa6000396000f3fe608060405234801561001057600080fd5b506004361061010b5760003560e01c8063715018a6116100a2578063b88d4fde11610071578063b88d4fde146102a4578063c87b56dd146102c0578063d204c45e146102f0578063e985e9c51461030c578063f2fde38b1461033c5761010b565b8063715018a6146102425780638da5cb5b1461024c57806395d89b411461026a578063a22cb465146102885761010b565b806323b872dd116100de57806323b872dd146101aa57806342842e0e146101c65780636352211e146101e257806370a08231146102125761010b565b806301ffc9a71461011057806306fdde0314610140578063081812fc1461015e578063095ea7b31461018e575b600080fd5b61012a60048036038101906101259190611ae0565b610358565b6040516101379190611b28565b60405180910390f35b61014861036a565b6040516101559190611bd3565b60405180910390f35b61017860048036038101906101739190611c2b565b6103fc565b6040516101859190611c99565b60405180910390f35b6101a860048036038101906101a39190611ce0565b610418565b005b6101c460048036038101906101bf9190611d20565b61042e565b005b6101e060048036038101906101db9190611d20565b610530565b005b6101fc60048036038101906101f79190611c2b565b610550565b6040516102099190611c99565b60405180910390f35b61022c60048036038101906102279190611d73565b610562565b6040516102399190611daf565b60405180910390f35b61024a61061c565b005b610254610630565b6040516102619190611c99565b60405180910390f35b61027261065a565b60405161027f9190611bd3565b60405180910390f35b6102a2600480360381019061029d9190611df6565b6106ec565b005b6102be60048036038101906102b99190611f6b565b610702565b005b6102da60048036038101906102d59190611c2b565b610727565b6040516102e79190611bd3565b60405180910390f35b61030a6004803603810190610305919061208f565b610739565b005b610326600480360381019061032191906120eb565b610775565b6040516103339190611b28565b60405180910390f35b61035660048036038101906103519190611d73565b610809565b005b60006103638261088f565b9050919050565b6060600080546103799061215a565b80601f01602080910402602001604051908101604052809291908181526020018280546103a59061215a565b80156103f25780601f106103c7576101008083540402835291602001916103f2565b820191906000526020600020905b8154815290600101906020018083116103d557829003601f168201915b5050505050905090565b6000610407826108f0565b5061041182610978565b9050919050565b61042a82826104256109b5565b6109bd565b5050565b600073ffffffffffffffffffffffffffffffffffffffff168273ffffffffffffffffffffffffffffffffffffffff16036104a05760006040517f64a0ae920000000000000000000000000000000000000000000000000000000081526004016104979190611c99565b60405180910390fd5b60006104b483836104af6109b5565b6109cf565b90508373ffffffffffffffffffffffffffffffffffffffff168173ffffffffffffffffffffffffffffffffffffffff161461052a578382826040517f64283d7b0000000000000000000000000000000000000000000000000000000081526004016105219392919061218b565b60405180910390fd5b50505050565b61054b83838360405180602001604052806000815250610702565b505050565b600061055b826108f0565b9050919050565b60008073ffffffffffffffffffffffffffffffffffffffff168273ffffffffffffffffffffffffffffffffffffffff16036105d55760006040517f89c62b640000000000000000000000000000000000000000000000000000000081526004016105cc9190611c99565b60405180910390fd5b600360008373ffffffffffffffffffffffffffffffffffffffff1673ffffffffffffffffffffffffffffffffffffffff168152602001908152602001600020549050919050565b610624610be9565b61062e6000610c70565b565b6000600760009054906101000a900473ffffffffffffffffffffffffffffffffffffffff16905090565b6060600180546106699061215a565b80601f01602080910402602001604051908101604052809291908181526020018280546106959061215a565b80156106e25780601f106106b7576101008083540402835291602001916106e2565b820191906000526020600020905b8154815290600101906020018083116106c557829003601f168201915b5050505050905090565b6106fe6106f76109b5565b8383610d36565b5050565b61070d84848461042e565b6107216107186109b5565b85858585610ea5565b50505050565b606061073282611056565b9050919050565b610741610be9565b600060086000815480929190610756906121f1565b9190505590506107668382611169565b6107708183611187565b505050565b6000600560008473ffffffffffffffffffffffffffffffffffffffff1673ffffffffffffffffffffffffffffffffffffffff16815260200190815260200160002060008373ffffffffffffffffffffffffffffffffffffffff1673ffffffffffffffffffffffffffffffffffffffff16815260200190815260200160002060009054906101000a900460ff16905092915050565b610811610be9565b600073ffffffffffffffffffffffffffffffffffffffff168173ffffffffffffffffffffffffffffffffffffffff16036108835760006040517f1e4fbdf700000000000000000000000000000000000000000000000000000000815260040161087a9190611c99565b60405180910390fd5b61088c81610c70565b50565b6000634906490660e01b7bffffffffffffffffffffffffffffffffffffffffffffffffffffffff1916827bffffffffffffffffffffffffffffffffffffffffffffffffffffffff191614806108e957506108e8826111e3565b5b9050919050565b6000806108fc836112c5565b9050600073ffffffffffffffffffffffffffffffffffffffff168173ffffffffffffffffffffffffffffffffffffffff160361096f57826040517f7e2732890000000000000000000000000000000000000000000000000000000081526004016109669190611daf565b60405180910390fd5b80915050919050565b60006004600083815260200190815260200160002060009054906101000a900473ffffffffffffffffffffffffffffffffffffffff169050919050565b600033905090565b6109ca8383836001611302565b505050565b6000806109db846112c5565b9050600073ffffffffffffffffffffffffffffffffffffffff168373ffffffffffffffffffffffffffffffffffffffff1614610a1d57610a1c8184866114c7565b5b600073ffffffffffffffffffffffffffffffffffffffff168173ffffffffffffffffffffffffffffffffffffffff1614610aae57610a5f600085600080611302565b6001600360008373ffffffffffffffffffffffffffffffffffffffff1673ffffffffffffffffffffffffffffffffffffffff168152602001908152602001600020600082825403925050819055505b600073ffffffffffffffffffffffffffffffffffffffff168573ffffffffffffffffffffffffffffffffffffffff1614610b31576001600360008773ffffffffffffffffffffffffffffffffffffffff1673ffffffffffffffffffffffffffffffffffffffff168152602001908152602001600020600082825401925050819055505b846002600086815260200190815260200160002060006101000a81548173ffffffffffffffffffffffffffffffffffffffff021916908373ffffffffffffffffffffffffffffffffffffffff160217905550838573ffffffffffffffffffffffffffffffffffffffff168273ffffffffffffffffffffffffffffffffffffffff167fddf252ad1be2c89b69c2b068fc378daa952ba7f163c4a11628f55a4df523b3ef60405160405180910390a4809150509392505050565b610bf16109b5565b73ffffffffffffffffffffffffffffffffffffffff16610c0f610630565b73ffffffffffffffffffffffffffffffffffffffff1614610c6e57610c326109b5565b6040517f118cdaa7000000000000000000000000000000000000000000000000000000008152600401610c659190611c99565b60405180910390fd5b565b6000600760009054906101000a900473ffffffffffffffffffffffffffffffffffffffff16905081600760006101000a81548173ffffffffffffffffffffffffffffffffffffffff021916908373ffffffffffffffffffffffffffffffffffffffff1602179055508173ffffffffffffffffffffffffffffffffffffffff168173ffffffffffffffffffffffffffffffffffffffff167f8be0079c531659141344cd1fd0a4f28419497f9722a3daafe3b4186f6b6457e060405160405180910390a35050565b600073ffffffffffffffffffffffffffffffffffffffff168273ffffffffffffffffffffffffffffffffffffffff1603610da757816040517f5b08ba18000000000000000000000000000000000000000000000000000000008152600401610d9e9190611c99565b60405180910390fd5b80600560008573ffffffffffffffffffffffffffffffffffffffff1673ffffffffffffffffffffffffffffffffffffffff16815260200190815260200160002060008473ffffffffffffffffffffffffffffffffffffffff1673ffffffffffffffffffffffffffffffffffffffff16815260200190815260200160002060006101000a81548160ff0219169083151502179055508173ffffffffffffffffffffffffffffffffffffffff168373ffffffffffffffffffffffffffffffffffffffff167f17307eab39ab6107e8899845ad3d59bd9653f200f220920489ca2b5937696c3183604051610e989190611b28565b60405180910390a3505050565b60008373ffffffffffffffffffffffffffffffffffffffff163b111561104f578273ffffffffffffffffffffffffffffffffffffffff1663150b7a02868685856040518563ffffffff1660e01b8152600401610f04949392919061228e565b6020604051808303816000875af1925050508015610f4057506040513d601f19601f82011682018060405250810190610f3d91906122ef565b60015b610fc4573d8060008114610f70576040519150601f19603f3d011682016040523d82523d6000602084013e610f75565b606091505b506000815103610fbc57836040517f64a0ae92000000000000000000000000000000000000000000000000000000008152600401610fb39190611c99565b60405180910390fd5b805181602001fd5b63150b7a0260e01b7bffffffffffffffffffffffffffffffffffffffffffffffffffffffff1916817bffffffffffffffffffffffffffffffffffffffffffffffffffffffff19161461104d57836040517f64a0ae920000000000000000000000000000000000000000000000000000000081526004016110449190611c99565b60405180910390fd5b505b5050505050565b6060611061826108f0565b5060006006600084815260200190815260200160002080546110829061215a565b80601f01602080910402602001604051908101604052809291908181526020018280546110ae9061215a565b80156110fb5780601f106110d0576101008083540402835291602001916110fb565b820191906000526020600020905b8154815290600101906020018083116110de57829003601f168201915b50505050509050600061110c61158b565b90506000815103611121578192505050611164565b60008251111561115657808260405160200161113e929190612358565b60405160208183030381529060405292505050611164565b61115f846115a2565b925050505b919050565b61118382826040518060200160405280600081525061160b565b5050565b806006600084815260200190815260200160002090816111a79190612528565b507ff8e1a15aba9398e019f0b49df1a4fde98ee17ae345cb5f6b5e2c27f5033e8ce7826040516111d79190611daf565b60405180910390a15050565b60007f80ac58cd000000000000000000000000000000000000000000000000000000007bffffffffffffffffffffffffffffffffffffffffffffffffffffffff1916827bffffffffffffffffffffffffffffffffffffffffffffffffffffffff191614806112ae57507f5b5e139f000000000000000000000000000000000000000000000000000000007bffffffffffffffffffffffffffffffffffffffffffffffffffffffff1916827bffffffffffffffffffffffffffffffffffffffffffffffffffffffff1916145b806112be57506112bd8261162f565b5b9050919050565b60006002600083815260200190815260200160002060009054906101000a900473ffffffffffffffffffffffffffffffffffffffff169050919050565b808061133b5750600073ffffffffffffffffffffffffffffffffffffffff168273ffffffffffffffffffffffffffffffffffffffff1614155b1561146f57600061134b846108f0565b9050600073ffffffffffffffffffffffffffffffffffffffff168373ffffffffffffffffffffffffffffffffffffffff16141580156113b657508273ffffffffffffffffffffffffffffffffffffffff168173ffffffffffffffffffffffffffffffffffffffff1614155b80156113c957506113c78184610775565b155b1561140b57826040517fa9fbf51f0000000000000000000000000000000000000000000000000000000081526004016114029190611c99565b60405180910390fd5b811561146d57838573ffffffffffffffffffffffffffffffffffffffff168273ffffffffffffffffffffffffffffffffffffffff167f8c5be1e5ebec7d5bd14f71427d1e84f3dd0314c0f7b2291e5b200ac8c7c3b92560405160405180910390a45b505b836004600085815260200190815260200160002060006101000a81548173ffffffffffffffffffffffffffffffffffffffff021916908373ffffffffffffffffffffffffffffffffffffffff16021790555050505050565b6114d2838383611699565b61158657600073ffffffffffffffffffffffffffffffffffffffff168373ffffffffffffffffffffffffffffffffffffffff160361154757806040517f7e27328900000000000000000000000000000000000000000000000000000000815260040161153e9190611daf565b60405180910390fd5b81816040517f177e802f00000000000000000000000000000000000000000000000000000000815260040161157d9291906125fa565b60405180910390fd5b505050565b606060405180602001604052806000815250905090565b60606115ad826108f0565b5060006115b861158b565b905060008151116115d85760405180602001604052806000815250611603565b806115e28461175a565b6040516020016115f3929190612358565b6040516020818303038152906040525b915050919050565b6116158383611828565b61162a6116206109b5565b6000858585610ea5565b505050565b60007f01ffc9a7000000000000000000000000000000000000000000000000000000007bffffffffffffffffffffffffffffffffffffffffffffffffffffffff1916827bffffffffffffffffffffffffffffffffffffffffffffffffffffffff1916149050919050565b60008073ffffffffffffffffffffffffffffffffffffffff168373ffffffffffffffffffffffffffffffffffffffff161415801561175157508273ffffffffffffffffffffffffffffffffffffffff168473ffffffffffffffffffffffffffffffffffffffff16148061171257506117118484610775565b5b8061175057508273ffffffffffffffffffffffffffffffffffffffff1661173883610978565b73ffffffffffffffffffffffffffffffffffffffff16145b5b90509392505050565b60606000600161176984611921565b01905060008167ffffffffffffffff81111561178857611787611e40565b5b6040519080825280601f01601f1916602001820160405280156117ba5781602001600182028036833780820191505090505b509050600082602001820190505b60011561181d578080600190039150507f3031323334353637383961626364656600000000000000000000000000000000600a86061a8153600a858161181157611810612623565b5b049450600085036117c8575b819350505050919050565b600073ffffffffffffffffffffffffffffffffffffffff168273ffffffffffffffffffffffffffffffffffffffff160361189a5760006040517f64a0ae920000000000000000000000000000000000000000000000000000000081526004016118919190611c99565b60405180910390fd5b60006118a8838360006109cf565b9050600073ffffffffffffffffffffffffffffffffffffffff168173ffffffffffffffffffffffffffffffffffffffff161461191c5760006040517f73c6ac6e0000000000000000000000000000000000000000000000000000000081526004016119139190611c99565b60405180910390fd5b505050565b600080600090507a184f03e93ff9f4daa797ed6e38ed64bf6a1f010000000000000000831061197f577a184f03e93ff9f4daa797ed6e38ed64bf6a1f010000000000000000838161197557611974612623565b5b0492506040810190505b6d04ee2d6d415b85acef810000000083106119bc576d04ee2d6d415b85acef810000000083816119b2576119b1612623565b5b0492506020810190505b662386f26fc1000083106119eb57662386f26fc1000083816119e1576119e0612623565b5b0492506010810190505b6305f5e1008310611a14576305f5e1008381611a0a57611a09612623565b5b0492506008810190505b6127108310611a39576127108381611a2f57611a2e612623565b5b0492506004810190505b60648310611a5c5760648381611a5257611a51612623565b5b0492506002810190505b600a8310611a6b576001810190505b80915050919050565b6000604051905090565b600080fd5b600080fd5b60007fffffffff0000000000000000000000000000000000000000000000000000000082169050919050565b611abd81611a88565b8114611ac857600080fd5b50565b600081359050611ada81611ab4565b92915050565b600060208284031215611af657611af5611a7e565b5b6000611b0484828501611acb565b91505092915050565b60008115159050919050565b611b2281611b0d565b82525050565b6000602082019050611b3d6000830184611b19565b92915050565b600081519050919050565b600082825260208201905092915050565b60005b83811015611b7d578082015181840152602081019050611b62565b60008484015250505050565b6000601f19601f8301169050919050565b6000611ba582611b43565b611baf8185611b4e565b9350611bbf818560208601611b5f565b611bc881611b89565b840191505092915050565b60006020820190508181036000830152611bed8184611b9a565b905092915050565b6000819050919050565b611c0881611bf5565b8114611c1357600080fd5b50565b600081359050611c2581611bff565b92915050565b600060208284031215611c4157611c40611a7e565b5b6000611c4f84828501611c16565b91505092915050565b600073ffffffffffffffffffffffffffffffffffffffff82169050919050565b6000611c8382611c58565b9050919050565b611c9381611c78565b82525050565b6000602082019050611cae6000830184611c8a565b92915050565b611cbd81611c78565b8114611cc857600080fd5b50565b600081359050611cda81611cb4565b92915050565b60008060408385031215611cf757611cf6611a7e565b5b6000611d0585828601611ccb565b9250506020611d1685828601611c16565b9150509250929050565b600080600060608486031215611d3957611d38611a7e565b5b6000611d4786828701611ccb565b9350506020611d5886828701611ccb565b9250506040611d6986828701611c16565b9150509250925092565b600060208284031215611d8957611d88611a7e565b5b6000611d9784828501611ccb565b91505092915050565b611da981611bf5565b82525050565b6000602082019050611dc46000830184611da0565b92915050565b611dd381611b0d565b8114611dde57600080fd5b50565b600081359050611df081611dca565b92915050565b60008060408385031215611e0d57611e0c611a7e565b5b6000611e1b85828601611ccb565b9250506020611e2c85828601611de1565b9150509250929050565b600080fd5b600080fd5b7f4e487b7100000000000000000000000000000000000000000000000000000000600052604160045260246000fd5b611e7882611b89565b810181811067ffffffffffffffff82111715611e9757611e96611e40565b5b80604052505050565b6000611eaa611a74565b9050611eb68282611e6f565b919050565b600067ffffffffffffffff821115611ed657611ed5611e40565b5b611edf82611b89565b9050602081019050919050565b82818337600083830152505050565b6000611f0e611f0984611ebb565b611ea0565b905082815260208101848484011115611f2a57611f29611e3b565b5b611f35848285611eec565b509392505050565b600082601f830112611f5257611f51611e36565b5b8135611f62848260208601611efb565b91505092915050565b60008060008060808587031215611f8557611f84611a7e565b5b6000611f9387828801611ccb565b9450506020611fa487828801611ccb565b9350506040611fb587828801611c16565b925050606085013567ffffffffffffffff811115611fd657611fd5611a83565b5b611fe287828801611f3d565b91505092959194509250565b600067ffffffffffffffff82111561200957612008611e40565b5b61201282611b89565b9050602081019050919050565b600061203261202d84611fee565b611ea0565b90508281526020810184848401111561204e5761204d611e3b565b5b612059848285611eec565b509392505050565b600082601f83011261207657612075611e36565b5b813561208684826020860161201f565b91505092915050565b600080604083850312156120a6576120a5611a7e565b5b60006120b485828601611ccb565b925050602083013567ffffffffffffffff8111156120d5576120d4611a83565b5b6120e185828601612061565b9150509250929050565b6000806040838503121561210257612101611a7e565b5b600061211085828601611ccb565b925050602061212185828601611ccb565b9150509250929050565b7f4e487b7100000000000000000000000000000000000000000000000000000000600052602260045260246000fd5b6000600282049050600182168061217257607f821691505b6020821081036121855761218461212b565b5b50919050565b60006060820190506121a06000830186611c8a565b6121ad6020830185611da0565b6121ba6040830184611c8a565b949350505050565b7f4e487b7100000000000000000000000000000000000000000000000000000000600052601160045260246000fd5b60006121fc82611bf5565b91507fffffffffffffffffffffffffffffffffffffffffffffffffffffffffffffffff820361222e5761222d6121c2565b5b600182019050919050565b600081519050919050565b600082825260208201905092915050565b600061226082612239565b61226a8185612244565b935061227a818560208601611b5f565b61228381611b89565b840191505092915050565b60006080820190506122a36000830187611c8a565b6122b06020830186611c8a565b6122bd6040830185611da0565b81810360608301526122cf8184612255565b905095945050505050565b6000815190506122e981611ab4565b92915050565b60006020828403121561230557612304611a7e565b5b6000612313848285016122da565b91505092915050565b600081905092915050565b600061233282611b43565b61233c818561231c565b935061234c818560208601611b5f565b80840191505092915050565b60006123648285612327565b91506123708284612327565b91508190509392505050565b60008190508160005260206000209050919050565b60006020601f8301049050919050565b600082821b905092915050565b6000600883026123de7fffffffffffffffffffffffffffffffffffffffffffffffffffffffffffffffff826123a1565b6123e886836123a1565b95508019841693508086168417925050509392505050565b6000819050919050565b600061242561242061241b84611bf5565b612400565b611bf5565b9050919050565b6000819050919050565b61243f8361240a565b61245361244b8261242c565b8484546123ae565b825550505050565b600090565b61246861245b565b612473818484612436565b505050565b5b818110156124975761248c600082612460565b600181019050612479565b5050565b601f8211156124dc576124ad8161237c565b6124b684612391565b810160208510156124c5578190505b6124d96124d185612391565b830182612478565b50505b505050565b600082821c905092915050565b60006124ff600019846008026124e1565b1980831691505092915050565b600061251883836124ee565b9150826002028217905092915050565b61253182611b43565b67ffffffffffffffff81111561254a57612549611e40565b5b612554825461215a565b61255f82828561249b565b600060209050601f8311600181146125925760008415612580578287015190505b61258a858261250c565b8655506125f2565b601f1984166125a08661237c565b60005b828110156125c8578489015182556001820191506020850194506020810190506125a3565b868310156125e557848901516125e1601f8916826124ee565b8355505b6001600288020188555050505b505050505050565b600060408201905061260f6000830185611c8a565b61261c6020830184611da0565b9392505050565b7f4e487b7100000000000000000000000000000000000000000000000000000000600052601260045260246000fdfea2646970667358221220a02c046caf3f282b2fb51b5f9b778a7a2063260be0ce29eee0cfa5854bf2dda564736f6c634300081c0033",
  "linkReferences": {},
  "deployedLinkReferences": {}
}